:1000000080314A28053008007E1480310B1F0928F2
:100010000A2848282100111E0E280F281B2820001E
:10002000111E132814281B28210066088A00650861
:100030000A00803148282100911E1F2820282C28E2
:100040002000911E242825282C2822005E088A00E2
:100050005D080A00803148282100921D302831288F
:100060003D282000921D352836283D2821006808AB
:100070008A0067080A00803148282100911D412824
:10008000422848282000911D46284728482836281D
:100090007E10090080314C28210099312B218031BC
:1000A000EE00C63084009D308500A030860001300F
:1000B000870028309931A2218031113084009B3093
:1000C0008500403086000230870014309931A2212B
:1000D0008031FD012000EA01EB01EC01DF308400FA
:1000E000003085000F3099319C21803145308400EB
:1000F000013085001C3099319C218031C83084004A
:1001000001308500253099319C21803120308400D8
:1001100002308500203099319C2180317E102000F2
:100120008B319A2BD8302000AE00A430AF00523073
:10013000B000A130B1003A30B200A030B3003A3084
:10014000B400A030B50091319521803101309A3151
:100150005D22803115302200C2004B30C100BE301C
:10016000890BB028C10BB028C20BB02800000030AA
:100170009A315D22803115302200C2004B30C1001F
:10018000BE30890BC128C10BC128C20BC128000099
:1001900000309D3133258031003A0319D028D12811
:1001A000E32801309D3156258031003A0319D928C2
:1001B000DA28E328F1302100AD00A330AE009B31F6
:1001C0003A23803109292400E501D8302100B0000C
:1001D000A430B1006530B2000230B3006430B40026
:1001E0000230B50093314223803163302100B800E2
:1001F0000230B9006530BA000230BB006430BC0088
:100200000230BD006230BE000230BF0092318F224A
:1002100080312400650803190E290F29CA29E0300E
:100220002000AE00A430AF002B30B000A230B100EF
:10023000F830B200A130B3003A30B400A030B500BD
:1002400091319521803101309A315D228031063023
:100250002200C2001330C100AD30890B2D29C10B23
:100260002D29C20B2D29003200309A315D228031B8
:100270000B302200C2002630C1005D30890B3E29C0
:10028000C10B3E29C20B3E2900320C309C31AC24FC
:100290008031200024082400E100200023082400ED
:1002A000E000E8302100AD00A430AE002400610879
:1002B0002100B000240060082100AF0059309F31B8
:1002C0008727803121002E082400D50021002D0829
:1002D0002400D4006108803A2200C100833041022A
:1002E000031D75292030240060020318782979291C
:1002F000842922008C17FD302100AD00A330AE0010
:100300009B313A238031BE29E0302100B000A43077
:10031000B1006530B2000230B3006430B400023086
:10032000B500933142238031E0302000AE00A4308C
:10033000AF002B30B000A230B1005930B200023013
:10034000B3003A30B400A030B5009131952180312E
:1003500022008C1363302100B8000230B9006530F0
:10036000BA000230BB006430BC000230BD00623015
:10037000BE000230BF0092318F228031293022002E
:10038000C2009630C1007F30890BC429C10BC4293B
:10039000C20BC429240065080319CF29D0298B2A50
:1003A00037302000AE00A430AF002B30B000A230B8
:1003B000B1003C30B200A230B3003A30B400A030FB
:1003C000B50091319521803101309A315D22803123
:1003D00006302200C2001330C100AD30890BEE2977
:1003E000C10BEE29C20BEE29003200309A315D229A
:1003F00080310B302200C2002630C1005D30890BF5
:10040000FF29C10BFF29C20BFF2900320C309C31A0
:10041000AC248031200024082400E10020002308BF
:100420002400E000E8302100AD00A430AE0024003C
:1004300061082100B000240060082100AF0059309D
:100440009F318727803121002E082400D70021000A
:100450002D082400D6006108803A2200C1008230B5
:100460004102031D362ABC30240060020318392AD9
:100470003A2A452A22008C1328302100AD00A330EF
:10048000AE009B313A2380317F2A37302100B00003
:10049000A430B1006530B2000230B3006430B40063
:1004A0000230B50093314223803137302000AE0056
:1004B000A430AF002B30B000A230B1005930B200F0
:1004C0000230B3003A30B400A030B500913195212C
:1004D000803122008C1763302100B8000230B9004F
:1004E0006530BA000230BB006430BC000230BD0091
:1004F0006230BE000230BF0092318F22803129303D
:100500002200C2009630C1007F30890B852AC10BC2
:10051000852AC20B852A240065080319902A912A8E
:100520005D2B40302000AE00A430AF000930B00099
:10053000A430B1003A30B200A030B3003A30B40079
:10054000A030B5009131952180310B302200C200DE
:100550002630C1005D30890BAB2AC10BAB2AC20B20
:10056000AB2A003201309A315D2280310630220000
:10057000C2001330C100AD30890BBC2AC10BBC2AAC
:10058000C20BBC2A003200309A315D2280313D30EE
:100590002200C200E130C1003F30890BCD2AC10BDF
:1005A000CD2AC20BCD2A003201309A315D22803132
:1005B00006302200C2001330C100AD30890BDE2AA4
:1005C000C10BDE2AC20BDE2A003200309A315D22D6
:1005D000803110302200C2003930C1000D30890B4B
:1005E000EF2AC10BEF2AC20BEF2A003201309D31F6
:1005F00010258031003A0319FE2AFF2A1A2B0130F8
:100600009D3133258031003A0319072B082B1A2B13
:1006100000309D3156258031003A0319102B112BE3
:100620001A2B35302100AD00A330AE009B313A23A8
:100630008031482B2400E50100309A315D22803161
:1006400000309A316A22803140302100B000A4305D
:10065000B1006530B2000230B3006430B400023043
:10066000B50093314223803163302100B80002305D
:10067000B9006530BA000230BB006430BC00023003
:10068000BD006230BE000230BF0092318F22803147
:1006900015302200C2004B30C100BE30890B4E2BFA
:1006A000C10B4E2BC20B4E2B000000309A315D2245
:1006B000803100309A316A228031240065080319A4
:1006C000622B632BD12B52302000AE00A430AF0040
:1006D0004C30B000A230B1000D30B200A330B300F6
:1006E0000930B400A230B50091319521803101303C
:1006F0009A315D22803106302200C2001330C100E1
:10070000AD30890B812BC10B812BC20B812B0032A9
:1007100000309A315D2280318B302100AD00A03055
:10072000AE009B313A238031240063089431572472
:1007300080312200C10041082400E4006408031D48
:10074000A22BA32BC92BE50152302100B000A4300D
:10075000B1006530B2000230B3006430B400023042
:10076000B50093314223803163302100B80002305C
:10077000B9006530BA000230BB006430BC00023002
:10078000BD006230BE000230BF0092318F22803146
:10079000D12B42302100AD00A330AE009B313A2373
:1007A0008031240065080319D62BD72B572C5B30DA
:1007B0002000AE00A430AF004930B000A430B1003A
:1007C0003A30B200A030B3003A30B400A030B500E7
:1007D00091319521803101309A316A228031063081
:1007E0002200C2001330C100AD30890BF52BC10BC4
:1007F000F52BC20BF52B003200309A316A22803182
:100800000B302200C2002630C1005D30890B062C5F
:10081000C10B062CC20B062C003201309D31102575
:100820008031003A0319152C162C312C01309D31E2
:1008300033258031003A03191E2C1F2C312C013036
:100840009D3156258031003A0319272C282C312C54
:100850004F302100AD00A330AE009B313A238031F0
:10086000572C2400E5015B302100B000A430B1001A
:100870006530B2000230B3006430B4000230B5001D
:1008800093314223803163302100B8000230B90037
:100890006530BA000230BB006430BC000230BD00DD
:1008A0006230BE000230BF0092318F2280312400BE
:1008B000650803195C2C5D2CDD2C64302000AE0033
:1008C000A430AF009030B000A330B1003A30B20095
:1008D000A030B3003A30B400A030B500913195217A
:1008E000803101309A319122803106302200C200DD
:1008F0001330C100AD30890B7B2CC10B7B2CC20B9C
:100900007B2C003200309A31912280310B30220052
:10091000C2002630C1005D30890B8C2CC10B8C2CA1
:10092000C20B8C2C003200309D3110258031003AF2
:1009300003199B2C9C2CB72C00309D313325803122
:10094000003A0319A42CA52CB72C00309D31562554
:100950008031003A0319AD2CAE2CB72C5C3021004D
:10096000AD00A330AE009B313A238031DD2C240052
:10097000E50164302100B000A430B1006530B20060
:100980000230B3006430B4000230B500933142232A
:10099000803163302100B8000230B9006530BA0000
:1009A0000230BB006430BC000230BD006230BE00CB
:1009B0000230BF0092318F22803124006508031974
:1009C000E22CE32C5D2D6D302000AE00A430AF0092
:1009D0009830B000A430B1003A30B200A030B3007B
:1009E0003A30B400A030B50091319521803101300A
:1009F0009A317722803119302200C2005A30C1006A
:100A0000B130890B012DC10B012DC20B012D00321C
:100A100000309A31772280310B302200C20026301C
:100A2000C1005D30890B122DC10B122DC20B122D8E
:100A3000003201309D3110258031003A0319212DFB
:100A4000222D3D2D01309D3133258031003A03198F
:100A50002A2D2B2D3D2D01309D3156258031003A18
:100A60000319332D342D3D2D69302100AD00A33005
:100A7000AE009B313A2380315D2D6D302100D700CF
:100A8000A430D80065302200C10041082100D900FF
:100A900064302200C20042082100DA0063302200E4
:100AA000C30043082100DB0062302200C400440878
:100AB0002100DC0086319E26803124006508031960
:100AC000622D632DE32D76302000AE00A430AF0000
:100AD000A830B000A430B1003A30B200A030B3006A
:100AE0003A30B400A030B500913195218031013009
:100AF0009A318422803119302200C2005A30C1005C
:100B0000B130890B812DC10B812DC20B812D00329B
:100B100000309A31842280310B302200C20026300E
:100B2000C1005D30890B922DC10B922DC20B922D0D
:100B3000003200309D3110258031003A0319A12D7B
:100B4000A22DBD2D00309D3133258031003A03198F
:100B5000AA2DAB2DBD2D00309D3156258031003A98
:100B60000319B32DB42DBD2D76302100AD00A33077
:100B7000AE009B313A238031E32D2400E50176302D
:100B80002100B000A430B1006530B2000230B300E3
:100B90006430B4000230B5009331422380316330B9
:100BA0002100B8000230B9006530BA000230BB0045
:100BB0006430BC000230BD006230BE000230BF00B5
:100BC00092318F228031240065080319E82DE92D28
:100BD000492E7F302000AE00A430AF00B630B00008
:100BE000A230B1002130B200A430B3000930B4000B
:100BF000A230B5009131952180319C316E24803135
:100C0000240063089431572480312200C100410838
:100C10002400E4006408031D0E2E0F2E412EE50172
:100C20007F302100B000A430B1006530B200023046
:100C3000B3006430B4000230B500933142238031F8
:100C400063302100B8000230B9006530BA000230CC
:100C5000BB006430BC000230BD006230BE00023018
:100C6000BF0092318F22803129302200C20096309D
:100C7000C1007F30890B3A2EC10B3A2EC20B3A2E9F
:100C8000492E83302100AD00A330AE009B313A23C2
:100C900080312400650803194E2E502E8B31C22B53
:100CA00015302000AE00A430AF00B930B000A13044
:100CB000B100FF30B200A230B3001530B400A13053
:100CC000B50091319521803101309A313622803141
:100CD00000309A31292280319C31CD24803163301B
:100CE0002100B0000230B1006530B2000230B30024
:100CF00088310C20803165302100B0000230B10015
:100D00006430B2000230B3006330B4000230B5008A
:100D10006230B6000230B70091314B21803129306A
:100D20002200C2009630C1007F30890B952EC10B86
:100D3000952EC20B952E4E2E80314A2840308600CB
:100D4000023087002A3084000130850014302100F1
:100D5000DD0016001A00DD0BA92EB430860001302C
:100D6000870020308400013085000A30DD00160045
:100D70001A00DD0BB72E01309A3143228631013043
:100D80009A315022863100309A3136228631210044
:100D900058082000AF00210057082000AE00B030F6
:100DA000B000A130B1008C30B200A130B3000030EF
:100DB000B400A130B5009131952186312A30200050
:100DC000B3000130B400210058082000B600210013
:100DD00057082000B5009B3150238631200034088D
:100DE0002200BF00200033082200BE003F08200080
:100DF000B40022003E082000B3002030B5000130CE
:100E0000B6009B3150238631200034082100AE000B
:100E1000200033082100AD009B313A238631913107
:100E20000321863121005B0886000230870001081B
:100E30009431572486312100DD005D082200C00076
:100E40000B302100DE002630DD005D30890B262FBF
:100E5000DD0B262FDE0B262F00322200400803195F
:100E6000322F332F672F2100590886000230870068
:100E700081015A0886000230870081016D30200010
:100E8000AE00A430AF00B530B000A130B1009E304C
:100E9000B200A130B3001530B400A130B5009131DB
:100EA00095218631DB302100B8000030B900D930FF
:100EB000BA000030BB00DA30BC000030BD00DC30CE
:100EC000BE000030BF0092318F228631EF2F6D308F
:100ED0002000AE00A430AF009830B000A430B100C4
:100EE0003A30B200A030B3003A30B400A030B500C0
:100EF00091319521863100309A314322863101307B
:100F00009A315022863100309A31362286310130B2
:100F10009A317722863119302100DE005A30DD0007
:100F2000B130890B912FDD0B912FDE0B912F003209
:100F300000309A317722863115302100DE004B30A7
:100F4000DD00BE30890BA22FDD0BA22FDE0BA22FFE
:100F5000000001309D3110258631003A0319B12F70
:100F6000B22FD92F01309D3133258631003A031934
:100F7000BA2FBB2FD92F01309D3156258631003A2B
:100F80000319C32FC42FD92F6D302000AE00A43019
:100F9000AF009830B000A430B1005C30B200A23095
:100FA000B3008830B400A430B5009131952186316A
:100FB000EF2F2100590886000230870081016D3033
:100FC000B000A430B100D930B2000030B300DA3044
:100FD000B4000030B500933142238631522F08000F
:100FE0009C314F2487318831002087319931542139
:100FF00087319931BE2187319031BB20873108007C
:1010000070302100990098012200960121001A1FDA
:101010000A280B28062808002100B7016C282000A8
:101020000F19132814282928D6302100AD00A0302C
:10103000AE009B313A2388312100B701B70A30084E
:101040008600310887008101320886003308870056
:10105000810120006A0803192E282F286C2890315E
:10106000002088312100B4003408B6005C2801005B
:1010700066302100AD00A130AE009B313A238831AB
:10108000210030088600310887008101320886007F
:1010900033088700810102302100B5000430B4001C
:1010A000BA30890B5128B40B5128B50B51280000D8
:1010B0002100B701B70A6C283608B400B50135081D
:1010C000003A031964286C283408303A0319372889
:1010D000043A031938286C282100370803197128AD
:1010E00072280F2808002000CA003F08D3004008DB
:1010F000D4004108D5004208D6004308D700440870
:10110000D8004508D9004608DA0053308600003080
:101110008700473FC700C71B8E28902801309128C1
:1011200000302000C800C9014808D1004908D20099
:101130005108520403199D289E28BC28D309D409BC
:10114000D509D609D709D809D909DA09D30A031D5F
:10115000BC28D40A031DBC28D50A031DBC28D60A06
:10116000031DBC28D70A031DBC28D80A031DBC28B0
:10117000D90A031DBC28DA0A2100E21BC028C128B5
:10118000C528FD30E305FF30E4056208803A200001
:10119000C70080304702031DD028013021006102C2
:1011A0000318D328D428DA2801302000CD000030DD
:1011B000CE00E228210062082000CE002100610854
:1011C0002000CD00220056082000D0002200550843
:1011D0002000CF0051085204031DEF28F028F52805
:1011E0002100631DF428F528FA28FF302000CF07DE
:1011F000FF30D03D1F302000DB000030DC00240039
:10120000BF016B29FF302000DB07FF30DC3D0A30D7
:10121000A300A401A501A601A701A801A901AA0193
:101220005308AB005408AC005508AD005608AE009A
:101230005708AF005808B0005908B1005A08B2006A
:101240009431EC24883120002408B7002308B6002C
:101250009C313324883120003608303EC7005B08BB
:10126000203E86000230870047088100FF30CD070E
:10127000FF30CE3DFF30CF07FF30D03D0A30A30016
:10128000A401A501A601A701A801A901AA0153086B
:10129000AB005408AC005508AD005608AE00570826
:1012A000AF005808B0005908B1005A08B200953193
:1012B000D925883120002308D3002408D40025082C
:1012C000D5002608D6002708D7002808D800290806
:1012D000D9002A08DA0020005C08803AC700803074
:1012E0004702031D752901305B02031C7829792907
:1012F000A6292000530854045504560457045804E2
:1013000059045A04031D8529862902294E08803A6A
:10131000C70080304702031D8F2901304D0203189A
:1013200092299329022920005008803AC700803072
:101330004702031D9D2901304F02031CA029A1294A
:10134000A6292100E318A529A62902292000510871
:101350005204031DAC29AD29B2292100631DB12916
:10136000B229CF29FF302000DB07FF30DC3D5108D8
:101370005204031DBC29BD29C2292B30CB000030EB
:10138000CC00C6292D30CB000030CC004B08C70064
:101390005B08203E8600023087004708810020005D
:1013A0005B08203EC7004708B6005008B8004F0849
:1013B000B7004A089231E622883120003708C00081
:1013C0003608BF0008002100B600B501932B2000AD
:1013D0000F19EB29EC29072A71302100AD00A0304C
:1013E000AE009B313A2389312100B501B50A360898
:1013F00086000230870081013108860002308700B4
:10140000810130088600023087008101810A2000B6
:101410006A0803190C2A0D2A932B90310020893178
:101420002100B2003208B400742B01001B302100EF
:10143000AD00A330AE009B313A238931210036083C
:101440008600023087008101810A30088600023060
:1014500087008101810A31088600023087008101FE
:1014600002302100B3000430B200BA30890B362AB2
:10147000B20B362AB30B362A00002100B501B50A9B
:10148000932B5730AD00A030AE009B313A23893109
:1014900079302000AE00A130AF003A30B000A0306B
:1014A000B100EB30B200A030B3003A30B400A0304D
:1014B000B50091319521893121003608860002302E
:1014C00087008101810A02302100B3000430B2009C
:1014D000BA30890B692AB20B692AB30B692A00005A
:1014E0002100B501B50A300886000230870081016D
:1014F00022008C13932B3B30AD00A030AE009B310B
:101500003A23893179302000AE00A130AF003A3063
:10151000B000A030B100C630B200A130B3003A3004
:10152000B400A030B50091319521893121003608F1
:101530008600023087008101810A3008860002306F
:101540008700810131088600023087008101023066
:101550002100B3000430B200BA30890BAD2AB20BBF
:10156000AD2AB30BAD2A00002100B501B50A220057
:101570008C17932B1F30AD00A030AE009B313A2367
:10158000893179302000AE00A130AF003A30B00090
:10159000A030B100C230B200A130B3003A30B40084
:1015A000A030B5009131952189312100360886009F
:1015B000023087008101810A02302100B30004302B
:1015C000B200BA30890BE22AB20BE22AB30BE22A4C
:1015D00000002100B501B50A3008860002308700FE
:1015E000810122008C13932BA530AD00A030AE00FA
:1015F0009B313A23893179302000AE00A130AF0011
:101600003A30B000A030B1006F30B200A230B30069
:101610003A30B400A030B5009131952189312100D4
:1016200036088600023087008101810A3008860072
:101630000230870081013108860002308700810175
:10164000810A02302100B3000430B200BA30890BA5
:10165000272BB20B272BB30B272B00002100B50142
:10166000B50A22008C17932BBE30AD00A030AE001F
:101670009B313A23893179302000AE00A130AF0090
:101680003A30B000A030B1006B30B200A230B300ED
:101690003A30B400A030B500913195218931210054
:1016A00036088600023087008101810A30088600F2
:1016B00002308700810131088600023087008101F5
:1016C000810A02302100B3000430B200BA30890B25
:1016D000672BB20B672BB30B672B00002100B50102
:1016E000B50A22008C13932B3408B200B3013308DF
:1016F000003A03197C2B932B3208303A0319152A30
:10170000013A0319162A043A0319342B033A031930
:10171000412A013A03197B2A0F3A0319F42A013AA4
:101720000319BA2A932B210035080319982B992BFA
:10173000E72908008731F0278B318B170B1724001E
:10174000E501E401E301E201E20AD801D80A200040
:101750008E1AAB2BAC2BB22B2400D8019A319E22CF
:101760008B31B52B9A3105228B3115302200C20006
:101770004B30C100BE30890BBB2BC10BBB2BC20B46
:10178000BB2B00004E309331CB238B3179302000BE
:10179000AE00A130AF00F130B000A230B100D430C3
:1017A000B200A130B300C530B400A230B500913111
:1017B00095218B3103302200C2000830C100773000
:1017C000890BE02BC10BE02BC20BE02B4630933191
:1017D000CB238B3179302000AE00A130AF00A73091
:1017E000B000A230B100D430B200A130B300C53097
:1017F000B400A230B500913195218B310330220025
:10180000C2000830C1007730890B042CC10B042CB6
:10181000C20B042C22008C1320000E1C102C112C47
:10182000152C2400DF01DF0A172C2400DF01200023
:101830008E181B2C1C2C1D2C2E2C2E2C65302200BF
:10184000C10041082100B00062302200C2004208FD
:101850002100B10063308931E3218B312400650818
:101860000319332C342C1E2CE2019D3179258B3148
:101870002400E501E50A00309A3136228B31003030
:101880009A3143228B3101309A3150228B3103300F
:101890002200C2000830C1007730890B4D2CC10BEB
:1018A0004D2CC20B4D2C46309331CB238B317930EC
:1018B0002000AE00A130AF00D430B000A230B100A3
:1018C000D430B200A130B300C530B400A230B500AE
:1018D000913195218B3103302200C2000830C100C4
:1018E0007730890B712CC10B712CC20B712C4E30CF
:1018F0009331CB238B3190302000AE00A430AF0069
:101900001A30B000A230B1003A30B200A030B300BB
:101910003A30B400A030B500913195218B311930A7
:10192000903175208B312200C10041082400DE0077
:1019300003302200C2000830C1007730890B9E2C92
:10194000C10B9E2CC20B9E2C01309A315D228B3133
:1019500001309A316A228B3115302200C2004B309F
:10196000C100BE30890BB22CC10BB22CC20BB22C01
:10197000000001309A3129228B3129302200C20027
:101980009630C1007F30890BC32CC10BC32CC20B16
:10199000C32C01309D3110258B31003A0319D12C15
:1019A000D22CED2C01309D3133258B31003A0319B7
:1019B000DA2CDB2CED2C01309D3156258B31003A91
:1019C0000319E32CE42CED2C9D302100AD00A33055
:1019D000AE009B313A238B311B2D2400E5010030F2
:1019E0009A315D228B3100309A316A228B319030EE
:1019F0002100B000A430B1006530B2000230B30065
:101A00006430B4000230B500933142238B3163302F
:101A10002100B8000230B9006530BA000230BB00C6
:101A20006430BC000230BD006230BE000230BF0036
:101A300092318F228B3115302200C2004B30C10011
:101A4000BE30890B212DC10B212DC20B212D000091
:101A500000309A315D228B3100309A316A228B310D
:101A6000240065080319352D362DA92DA03020003E
:101A7000AE00A430AF00E630B000A130B1003A3083
:101A8000B200A030B3003A30B400A030B5009131BC
:101A900095218B3100309A315D228B3100309A31A3
:101AA0006A228B310B302200C2002630C1005D302B
:101AB000890B582DC10B582DC20B582D0032013007
:101AC0009D3110258B31003A031D672D682D832D24
:101AD00001309D3133258B31003A031D702D712D5E
:101AE000832D01309D3156258B31003A031D792D10
:101AF0007A2D832DA9302100AD00A330AE009B319B
:101B00003A238B31A92D2400E501A0302100B0003B
:101B1000A430B1006530B2000230B3006430B400CC
:101B20000230B500933142238B3163302100B8007D
:101B30000230B9006530BA000230BB006430BC002E
:101B40000230BD006230BE000230BF0092318F22F1
:101B50008B31240065080319AF2D8D31B12D8E31E5
:101B6000252EB0302000AE00A430AF007A30B00097
:101B7000A230B1003A30B200A030B3003A30B40025
:101B8000A030B500913195218D3101309A315D221F
:101B90008D3106302200C2001330C100AD30890BF8
:101BA000CF2DC10BCF2DC20BCF2D003200309A317B
:101BB0005D228D3124005F080319DF2DE02D252ED5
:101BC00000302100AD00A030AE009B313A238D31B2
:101BD00024006308943157248D312200C10041084C
:101BE0002400E4006408031DF62DF72D1D2EE501E9
:101BF000B0302100B000A430B1006530B200023036
:101C0000B3006430B4000230B500933142238D310B
:101C100063302100B8000230B9006530BA000230EC
:101C2000BB006430BC000230BD006230BE00023038
:101C3000BF0092318F228D31252EB5302100AD00AD
:101C4000A330AE009B313A238D312400650803197F
:101C50002A2E2B2E962EB8302000AE00A430AF00D6
:101C60009830B000A230B1003A30B200A030B300DA
:101C70003A30B400A030B500913195218D3101305A
:101C80009A315D228D3106302200C2001330C1002E
:101C9000AD30890B492EC10B492EC20B492E0032A3
:101CA00000309A315D228D3124005F080319592ECE
:101CB0005A2E962E6308943157248D312200C1008C
:101CC00041082400E4006408031D672E682E8E2E50
:101CD000E501B8302100B000A430B1006530B20099
:101CE0000230B3006430B4000230B50093314223B7
:101CF0008D3163302100B8000230B9006530BA0080
:101D00000230BB006430BC000230BD006230BE0057
:101D10000230BF0092318F228D31962EC1302100CA
:101D2000AD00A330AE009B313A238D31240065080D
:101D300003199B2E9C2E072FC0302000AE00A4302C
:101D4000AF008930B000A230B1003A30B200A0300C
:101D5000B3003A30B400A030B500913195218D31F7
:101D600001309A315D228D3106302200C2001330DD
:101D7000C100AD30890BBA2EC10BBA2EC20BBA2EE0
:101D8000003200309A315D228D3124005F08031942
:101D9000CA2ECB2E072F6308943157248D31220091
:101DA000C10041082400E4006408031DD82ED92E88
:101DB000FF2EE501C0302100B000A430B100653035
:101DC000B2000230B3006430B4000230B500933189
:101DD00042238D3163302100B8000230B9006530F4
:101DE000BA000230BB006430BC000230BD0062307B
:101DF000BE000230BF0092318F228D31072FCD30CF
:101E00002100AD00A330AE009B313A238D31240078
:101E1000650803190C2F0D2F7B2FC8302000AE0052
:101E2000A430AF002C30B000A430B1003A30B20082
:101E3000A030B3003A30B400A030B5009131952104
:101E40008D3101309A315D228D3115302200C20072
:101E50004B30C100BE30890B2B2FC10B2B2FC20B77
:101E60002B2F000000309A315D228D311530220079
:101E7000C2004B30C100BE30890B3C2FC10B3C2F40
:101E8000C20B3C2F000001309D3110258D31003AEE
:101E900003194B2F4C2F552FD9302100AD00A33003
:101EA000AE009B313A238D317B2F2400E501C830F1
:101EB0002100B000A430B1006530B2000230B300A0
:101EC0006430B4000230B500933142238D31633069
:101ED0002100B8000230B9006530BA000230BB0002
:101EE0006430BC000230BD006230BE000230BF0072
:101EF00092318F228D31240065080319802F812FA4
:101F0000F82FD0302000AE00A430AF003E30B0003B
:101F1000A130B1003A30B200A030B3003A30B40082
:101F2000A030B500913195218D3101309A315D227B
:101F30008D3115302200C2004B30C100BE30890BFC
:101F40009F2FC10B9F2FC20B9F2F000000309A3193
:101F50005D228D3115302200C2004B30C100BE30F1
:101F6000890BB02FC10BB02FC20BB02F0000003077
:101F70009D3110258D31003A0319BF2FC02FD22F6C
:101F800001309D3133258D31003A0319C82FC92FF7
:101F9000D22FE5302100AD00A330AE009B313A23B3
:101FA0008D31F82F2400E501D0302100B000A4309D
:101FB000B1006530B2000230B3006430B4000230CA
:101FC000B500933142238D3163302100B8000230D7
:101FD000B9006530BA000230BB006430BC0002308A
:101FE000BD006230BE000230BF0092318F228D31C1
:101FF000240065080319FE2F8031922881310929B8
:1020000020006A0803190528062800286B08453EA9
:102010008600013087000108A30023082100EB009F
:1020200020006B08E53E8600013087000108A30010
:102030002308A4000130A3002308EB0708306B023B
:10204000031C232824282528EB01210091120130AC
:102050002000EA022100911620002408080099318E
:1020600037219031FA0023005F08860087017A0843
:1020700081000130FA007A08DF070130E002003009
:10208000E13B600861040319462847284C28993130
:102090004C21903105307428E4155628993180215F
:1020A0009031742899317B21903174285408FA00BA
:1020B0007A08F90049088A0048080A009031FB00B4
:1020C000FC017C08003A0319662852287B08013A73
:1020D00003195228033A03194E28013A03194E28CE
:1020E000073A03195228522808002000A4002400AF
:1020F000161416187C287D2879283230910014187F
:10210000822883287F28141986288728832820007E
:1021100024082400910014188E288F288B28141965
:10212000922893288F2896149618972898289428F0
:102130003330910014189D289E289A281419A1283C
:10214000A2289E289615141CA628A728A3281108A3
:102150002000A3002308A500240096161616161AC0
:10216000B228B328AF2816151619B728B828B428EE
:1021700020002508080021009112BF302000A30094
:102180001F30A4009931EA21903121001112EE3064
:102190002000A3001C30A4009931F32190310830B5
:1021A00023009F0090309D0024309E0040309B0013
:1021B00003309C002A302000A3001930A40099317C
:1021C000D821903144302000A3001930A400993167
:1021D000E121903140302000A3001930A400993152
:1021E000CF2190312100EB01FD01ED0108302000ED
:1021F000A50025082100EC002000EC01EB01EA011C
:102200002100911608002000A801A9012000AA01C0
:10221000AB019E31412691310B302000A7002630C2
:10222000A6005D30890B1229A60B1229A70B1229D3
:10223000003201302000AA070030AB3D2B08803A65
:10224000A60080302602031D272904302A02031C21
:102250002A292B2909290B302000A7002630A600A7
:102260005D30890B3129A60B3129A70B31290032AA
:1022700001302000A8070030A93D2908803AA600B7
:1022800080302602031D462904302802031C4929F8
:102290004A290629080021003408860035088700ED
:1022A0000108031D542955295C29D630AD00A03002
:1022B000AE009B313A23913121003008860031086D
:1022C00087008101320886003308870081013408C5
:1022D00086003508870081013608860037088700A8
:1022E0000130810000309A313622913100309A312C
:1022F0004322913100309A315022913100309A318D
:102300002922913100309A315D22913100309A3189
:102310006A22913100309A317722913100309A311E
:102320008422913122008C1308009931FC219131D3
:1023300006309B319723913102302000B7000430E2
:10234000B600BA30890BA229B60BA229B70BA22975
:1023500000002000A901A90A01309F3124279131F2
:1023600020002F08AA002E08A9009C318D2491314D
:102370002000A901A90A02309F31242791312000B1
:102380003108AA003008A9009C318D249131200029
:10239000A901A90A03309F31242791312000330875
:1023A000AA003208A9009C318D2491312000A90196
:1023B000A90A04309F312427913120003508AA0052
:1023C0003408A9009C318D24913108002000280890
:1023D0000319EB29EC29F1292808031DF029F1291B
:1023E000F62926089931AF219131372A2808033E72
:1023F00086008701160001040319FF29002A1D2AFF
:102400002808033E86008701403FA900413FAA00FB
:10241000280A86008701403FAB00413FAC002C08F2
:10242000803AAD002A08803A2D02031D192A290896
:102430002B0203181C2A1D2A372A20002608A9006F
:10244000280886008701280A840085010008010702
:10245000AA002A0886000230870029088100280A7D
:10246000860087010130810741310318810A080085
:1024700099318A219231003A03193F2A402A712A60
:102480004D2A9931622192318E2A993167219231F8
:102490008E2A9931712192318E2A23005708FA0031
:1024A0007A08F9000630C83E860001308700413FB7
:1024B0008A00403F0A009231FB00FC017C08003A90
:1024C0000319632A492A7B08013A0319492A033A66
:1024D0000319412A013A0319452A073A0319492ADF
:1024E000492A230064101730C83E86000130870057
:1024F000403F84008501810A0008993158219231BA
:1025000001302300E0020030E13B60086104031D5C
:102510008A2A8B2A8D2A06308E2A03300800210051
:1025200038088600390887000108C000C10140084A
:10253000B0004108B1003A0886003B088700010856
:10254000C200C3014208B2004308B30088310C2026
:10255000923121003A0886003B0887000108C0003C
:10256000C1014008B0004108B1003C0886003D08A8
:1025700087000108C200C3014208B2004308B3004B
:1025800038088600390887000108C400C5014408DE
:10259000B4004508B5003E0886003F0887000108E2
:1025A000C600C7014608B6004708B70091314B2165
:1025B000923129302100C1009630C0007F30890B54
:1025C000DF2AC00BDF2AC10BDF2A08002000BE0073
:1025D0002100631CEC2AED2AF62A20003E08B900EF
:1025E0003908AE0036089D31EE2592312000B81B27
:1025F000FA2AFB2A002B3808BD003708BC00022B42
:10260000BC01BD01BA01BB01162B20302000A60081
:102610000030A7003E08B9003908A8009131E62132
:10262000923101302000BA070030BB3D3B08803AB0
:10263000B9003D08803A3902031D202B3C083A02BC
:10264000031C232B242B052B21006318282B292B5B
:10265000322B20003E08B9003908AE0036089D3103
:10266000EE25923120003608A3000230A4009B31F1
:10267000C823923120003C082307B6003D08243DC2
:10268000B7000800A030860001308700C130840008
:102690000030850014302100B60016001A00B60B79
:1026A0004D2BBE30860001308700B73084000030EB
:1026B00085000A30B60016001A00B60B5B2B0130FD
:1026C0009A314322933101309A31502293310030B4
:1026D0009A313622933100309A31292293312100E8
:1026E00031082000AF00210030082000AE00B030DB
:1026F000B000A130B1001530B200A130B3003A30C3
:10270000B400A030B500913195219331C130200043
:10271000B3000030B400210031082000B6002100D1
:1027200030082000B5009B3150239331200034083D
:102730002100D600200033082100D50056082000D3
:10274000B400210055082000B300B730B5000030B8
:10275000B6009B3150239331200034082100AE0095
:10276000200033082100AD009B313A239331913191
:102770000321933120000F1DBE2BBF2BBA2B21004C
:102780003208860033088700810134088600350846
:102790008700810108002000AB002B08A900290850
:1027A0002100E90000309B31252393319C3020002B
:1027B000A900D730890BDA2BA90BDA2B03309B3118
:1027C000972393311A302000A900F830890BE62BAB
:1027D000A90BE62B000003309B31972393311A306D
:1027E0002000A900F830890BF32BA90BF32B000074
:1027F00003309B31972393311A302000A900F83021
:10280000890B002CA90B002C000002309B31972370
:1028100093311A302000A900F830890B0D2CA90B38
:102820000D2C000028309B3197239331023020007B
:10283000AA000430A900BA30890B1C2CA90B1C2C4F
:10284000AA0B1C2C00000C309B31972393310230D3
:102850002000AA000430A900BA30890B2D2CA90B46
:102860002D2CAA0B2D2C000001309B319723933186
:1028700002302000AA000430A900BA30890B3E2C97
:10288000A90B3E2CAA0B3E2C000006309B3197234F
:10289000933102302000AA000430A900BA30890B1D
:1028A0004F2CA90B4F2CAA0B4F2C00000800200026
:1028B000A800A901AA01280803195F2C602CC32CC9
:1028C000BD2C6A080319652C662CBD2C90310020A4
:1028D00094312000A5002508A700A72C0100023094
:1028E0002000A6000430A500BA30890B752CA50B7A
:1028F000752CA60B752C00002000A901A90AAA01BD
:10290000AA0ABD2C02302000A6000430A500BA306F
:10291000890B882CA50B882CA60B882C0000200086
:10292000A9017F2C02302000A6000430A500BA3097
:10293000890B982CA50B982CA60B982C0000200036
:10294000A901A90AAA01AA0A22008C13BD2C2708F2
:10295000A500A6012608003A0319AF2CBD2C2508B6
:10296000303A03196E2C023A03196F2C013A0319FD
:10297000822C0A3A0319922CBD2C20002A08031934
:10298000C22CC32C612C2808031DC72CC82CEA2C90
:10299000E42C01309B31FD239431003A0319D12CF2
:1029A000D22CD62C2000A901AA01AA0A01309C3100
:1029B00018249431003A0319DE2CDF2CE42C20007B
:1029C000A901A90AAA01AA0A20002A080319E92CC8
:1029D000EA2CC92C290808002000B5012B308600FC
:1029E00000308700473FB300B31FF72CF82C1A2D97
:1029F0002000AB09AC09AD09AE09AF09B009B109B6
:102A0000B209AB0A031D172DAC0A031D172DAD0A21
:102A1000031D172DAE0A031D172DAF0A031D172D19
:102A2000B00A031D172DB10A031D172DB20A20008D
:102A3000B501B50A2330860000308700473F2000EB
:102A4000B300B31F242D252D442D2000A309A40974
:102A5000A509A609A709A809A909AA09A30A031D86
:102A6000442DA40A031D442DA50A031D442DA60AC6
:102A7000031D442DA70A031D442DA80A031D442D40
:102A8000A90A031D442DAA0A2000230824042504B2
:102A900026042704280429042A040319502D512D43
:102AA000A42DB401B40A602DA335A40DA50DA60D67
:102AB000A70DA80DA90DAA0D0130B3003308B40766
:102AC000AA1F632D642D542D2A083202031D822D66
:102AD00029083102031D822D28083002031D822D92
:102AE00027082F02031D822D26082E02031D822D8A
:102AF00025082D02031D822D24082C02031D822D82
:102B000023082B02031C852D862D962D2308AB024E
:102B10002408AC3B2508AD3B2608AE3B2708AF3B5D
:102B20002808B03B2908B13B2A08B23BAA36A90CB9
:102B3000A80CA70CA60CA50CA40CA30C0130B40285
:102B4000031DA32DA42D642D35080319A82DA92D2F
:102B5000C72DAB09AC09AD09AE09AF09B009B10980
:102B6000B209AB0A031DC72DAC0A031DC72DAD0A60
:102B7000031DC72DAE0A031DC72DAF0A031DC72DA8
:102B8000B00A031DC72DB10A031DC72DB20A2000CC
:102B90002B08A3002C08A4002D08A5002E08A600D1
:102BA0002F08A7003008A8003108A9003208AA00A1
:102BB00008002000B5012330860000308700473F21
:102BC000B300B31FE42DE52D072E2000A309A409AF
:102BD000A509A609A709A809A909AA09A30A031D05
:102BE000042EA40A031D042EA50A031D042EA60A02
:102BF000031D042EA70A031D042EA80A031D042E7C
:102C0000A90A031D042EAA0A2000B501B50A2B301B
:102C1000860000308700473F2000B300B31F112E0D
:102C2000122E362E2000AB09AC09AD09AE09AF0952
:102C3000B009B109B209AB0A031D312EAC0A031D5C
:102C4000312EAD0A031D312EAE0A031D312EAF0AFF
:102C5000031D312EB00A031D312EB10A031D312E82
:102C6000B20A01302000B3003308B50636308600C2
:102C70000030870008302000B30000301E00B30B86
:102C80003E2E2308240425042604270428042904AE
:102C90002A0403194C2E4D2EA92EB401B40A5C2E21
:102CA000A335A40DA50DA60DA70DA80DA90DAA0D60
:102CB0000130B3003308B407AA1F5F2E602E502ED8
:102CC000B635B70DB80DB90DBA0DBB0DBC0DBD0DA8
:102CD0002A083202031D862E29083102031D862E82
:102CE00028083002031D862E27082F02031D862E7A
:102CF00026082E02031D862E25082D02031D862E72
:102D000024082C02031D862E23082B02031C892E67
:102D10008A2E9B2E2308AB022408AC3B2508AD3B32
:102D20002608AE3B2708AF3B2808B03B2908B13B3B
:102D30002A08B23B3614AA36A90CA80CA70CA60C7C
:102D4000A50CA40CA30C0130B402031DA82EA92EBF
:102D5000602E35080319AD2EAE2ECC2EB609B7095C
:102D6000B809B909BA09BB09BC09BD09B60A031DEE
:102D7000CC2EB70A031DCC2EB80A031DCC2EB90ADF
:102D8000031DCC2EBA0A031DCC2EBB0A031DCC2E6C
:102D9000BC0A031DCC2EBD0A20003608A30037084C
:102DA000A4003808A5003908A6003A08A7003B0887
:102DB000A8003C08A9003D08AA0008002100A900BD
:102DC00020005D0886008701403FDF00413FE000B2
:102DD0005F088400600885001200253A031DF12E6B
:102DE000F22EDA2F5D08860087010130810741311C
:102DF0000318810A2200D501D6012100E301E40174
:102E0000FF30E100FF30E20020005D08860087010E
:102E1000403FDF00413FE0005F088400600885001C
:102E20001200643A0319152F162F272F5D0886000C
:102E30008701403FDF00413FE0005F0884006008F9
:102E400085001200693A031D262F272F752F5D0874
:102E5000860087010130810741310318810A5E082D
:102E60008600870101088400850102308107003F48
:102E7000DF00013FE0005F082100A00020006008A3
:102E80002100A100890D893B8909A200A300A400AB
:102E9000A500A600A70020082000BF0021002108EF
:102EA0002000C000210022082000C10021002308CA
:102EB0002000C200210024082000C30021002508B2
:102EC0002000C400210026082000C500210027089A
:102ED0002000C60021002908883173209631200087
:102EE0004008DE003F08DD00FF2F5D0886008701F7
:102EF000403FDF00413FE0005F088400600885003C
:102F000012006E3A031D852F862FA52F5D088600BF
:102F100087010130810741310318810A5E0886006C
:102F20008701403F84008501810A0008DF005F08B7
:102F30002100A8002808860087015F08C03F6008BC
:102F4000C13F2000DD01DE01FF2F5D088600870103
:102F5000403FDF00413FE0005F08840060088500DB
:102F60001200253A031DB52FB62FD12F5D0886001C
:102F700087010130810741310318810A2530A600FD
:102F80000030A700210029082000DF005F08A8000A
:102F90009131E621963101302000DD000030DE0065
:102FA000FF2F5D088600870101308107413103183A
:102FB000810AA12F5D0886008701403FDF00413F65
:102FC000E0005F088400600885000008E100E2017D
:102FD0006108A6006208A700210029082000E3007C
:102FE0006308A8009131E621963120005D08860033
:102FF00087010130810741310318810ACB2F080076
:103000005D341934C6341934B634193438341234B2
:103010002F341034A8341934F5341E346234193482
:10302000673419346C3419347134193476341934E2
:103030007B34193480341934853419346D341E349A
:103040002D343E34203454344534533454342034F5
:1030500043344F344E3446344F3452344D34453477
:1030600020342D34203441345434543445344E34D7
:103070005434453420344134433451345534493484
:103080005434543445344D3445344E3454340D3472
:043090000A340034CA
:1032540008000834013008002400961408002400F3
:10326400161508002400961508002400110808000B
:103274002000911508002000911108009B31E223E1
:103284009931080023001D121D160800240096160B
:103294001616080024009612161608009E31C7263A
:1032A400993108001630210097000800F0007008DA
:1032B4002400910008002300E410E3010E3008000C
:1032C40099312E2199310130080099312E219931FB
:1032D4000230080099312E219931013008009931CA
:1032E400312199310030080099314C219931053050
:1032F40008009931482199310A3008009931482150
:103304009931093008002300E410E3010E3008006D
:103314002400160E890C890C013908009A311022F8
:1033240099312400161408009A311022993124008E
:1033340016150800640080010131890B9D290034B1
:10334400FE0012001E00FE0BA329003423006410AB
:10335400993134219931043008002000A500250852
:103364009E319A2699310800230064145E35993100
:103374005821993103300800F03021009E009B0150
:103384009C0101309D0008002300641403145E0DA9
:103394009931582199310530080020002408220071
:1033A400D800200023082200D700080020002408A9
:1033B4002200DC00200023082200DB00080020009B
:1033C40024082200DA00200023082200D900080083
:1033D400200024082200DE00200023082200DD0053
:1033E4000800200024082100E60020002308210012
:1033F400E500080001309B31972399313530890B62
:10340400012A000008002830240095009601940148
:103414002730920021008E150E160800240014197E
:10342400142A152A102A16081F39031D1A2A1B2AC2
:10343400102A08007608F1007508F0007708F800F3
:103444007808F20000309E3117269A3108002000D7
:10345400A300230803192F2A302A332A22000C142C
:10346400352A22000C1008002000A30023080319A9
:103474003C2A3D2A402A22001014422A220010101D
:1034840008002000A30023080319492A4A2A4D2AC8
:10349400220090144F2A2200901008002000A3005C
:1034A40023080319562A572A5A2A220010155C2A7F
:1034B4002200101108002000A30023080319632A26
:1034C400642A672A22008C14692A22008C100800BE
:1034D4002000A30023080319702A712A742A2200E9
:1034E4000C15762A22000C1108002000A3002308E2
:1034F40003197D2A7E2A812A22000C16832A22009F
:103504000C1208002000A300230803198A2A8B2A1E
:103514008E2A22008C16902A22008C120800200089
:10352400A30023080319972A982A9B2A22008C15A2
:103534009D2A22008C11080032302400920036307B
:10354400950096018030940021008E150E168B177D
:103554000B1791150800F3002300E41DB22AB32AC7
:10356400BC2A7308F2007208DF007108E1007008D9
:10357400E000E41108002000A3009A3110229A31DF
:1035840020002308240091002000911DCA2ACB2A80
:10359400C62A911108000230F0000030F1007908C9
:1035A4009A31AD229A310030F500F600F7019A31D4
:1035B4001C229A31043008000130F0000030F10080
:1035C40079089A31AD229A310030F500F600F701FE
:1035D4009A311C229A31023008000230F000003087
:1035E400F10079089A31AD229A310030F500F600E5
:1035F400F7019A311C229A31023008000130F000A0
:103604000030F10079089A31AD229B310030F50089
:10361400F600F7019A311C229B31043008002D3446
:103624003E342034453452345234453455345234C3
:103634003A3420340034003400340034003400348C
:103644000034003400342000A400993190219B31CF
:10365400210069089A31BD229B31200024082100F1
:103664006E049A31BD229B31993196219B31080019
:10367400AF302000E90069082100AF002E082000C7
:10368400E50021002D082000E400AF30E9006908BE
:10369400E60000309F3153279B3108002000340896
:1036A400A4003308A3009B31C8239B3120002308C6
:1036B4003307A7002408343DA8003608AA003508BB
:1036C400A9009D319F259B31080079088600870158
:1036D400403FF000413FF1007908023E8600870137
:1036E40001089A31AD229B310030F500F600F70154
:1036F4009A311C229B31023008002000A6002100D0
:103704006A082000A5002508A604260804389B3171
:1037140025239B3120002608FB399B3125239B312F
:103724004230890B932B003208002000A8002100AE
:10373400EA0120002808F0399B317F239B312000C7
:103744002808A7000330A735FF3E031DA52B273506
:10375400F0399B317F239B3108002000A800210011
:10376400EA01EA0A20002808F0399B317F239B31C3
:1037740020002808A7000330A735FF3E031DBE2BF9
:103784002735F0399B317F239B3108002000240822
:10379400A6002308A500D22B0130A3070030A43DC6
:1037A40023088600240887000108031DDA2BDB2B7D
:1037B400CE2B25082302A3002608243BA4000800DE
:1037C40023001908F00020006C08E53E8600013053
:1037D4008700700881000130F0007008EC070830A1
:1037E4006C02031CF62BF72BF82BEC010130F000D4
:1037F4007008EA0708002000A400A30124080319A4
:10380400042C052C0B2C8F1B082C092C0B2CA3012E
:10381400A30A2408031D0F2C102C162C8F1F132C05
:10382400142C162CA301A30A230808002000A400CA
:10383400A301240803191F2C202C262C0F19232C38
:10384400242C262CA301A30A2408031D2A2C2B2C88
:10385400312C0F1D2E2C2F2C312CA301A30A23084D
:10386400080020003708803AB80080303802031D71
:103874003D2C013036020318402C412C4E2C2000E4
:103884003609B8003709B900B80A0319B90A380863
:10389400B6003908B7004E2C0800220090018F01B1
:1038A4008C018D018E010830210090008C01CF30F5
:1038B4008D00BF308E00FF308F0023008F013F301A
:1038C4008D0090013C308C00240090018D0121007A
:1038D400951722009D01080022000C1706302000D5
:1038E400A4001330A300AD30890B762CA30B762CE7
:1038F400A40B762C003222000C1306302000A40006
:103904001330A300AD30890B852CA30B852CA40B9D
:10391400852C003208002000AC01AD01A02C290840
:103924002C0784002A082D3D850000089B31AF2315
:103934009C3101302000AC070030AD3D29082C0734
:1039440084002A082D3D85001200031DAA2CAB2CEF
:10395400912C08002000A6002608A500A50DA50DA1
:1039640021001D08200025068339250621009D001D
:103974001D140D30890BBC2C000021009D149D18D2
:10398400C42CC52CC12C1C082000A40021001B0839
:103994002000A300080020302100AD009830AE00C4
:1039A4009B313A239C312100B101B2019D3179252B
:1039B4009C3101302100B1070030B23D3208803A19
:1039C400B00080303002031DE92C02303102031CA8
:1039D400EC2CED2CD82C0800083021006C020318C4
:1039E400F42CF52C0E2D6D084D3E86000130870019
:1039F400010823009A000130F00070082100ED074F
:103A040008306D02031C072D082D092DED0101302E
:103A1400F0007008EC070F2D111208002000A4001C
:103A2400A30124080319172D182D222D0F1C1B2D5B
:103A34001C2D222D8F181F2D202D222DA301A30A0A
:103A44002408031D262D272D312D0F182A2D2B2D4B
:103A5400312D8F1C2E2D2F2D312DA301A30A2308C8
:103A640008002000A400A301240803193A2D3B2DCB
:103A7400452D8F1D3E2D3F2D452D0F1A422D432DD3
:103A8400452DA301A30A2408031D492D4A2D542DB5
:103A94008F194D2D4E2D542D0F1E512D522D542D59
:103AA400A301A30A230808002000A400A3012408FA
:103AB40003195D2D5E2D682D8F1E612D622D682DDD
:103AC4000F1B652D662D682DA301A30A2408031D71
:103AD4006C2D6D2D772D8F1A702D712D772D0F1F55
:103AE400742D752D772DA301A30A23080800200047
:103AF400A801A9019E3141269D310B302000A70069
:103B04002630A6005D30890B852DA60B852DA70BCD
:103B1400852D003201302000A8070030A93D290876
:103B2400803AA60080302602031D9A2D0230280216
:103B3400031C9D2D9E2D7C2D080020002A08B0001A
:103B44002908AF002808B2002708B1003208AC00E9
:103B54003108AB00B10A0319B20A2B0886002C08FD
:103B640087003008AE002F08AD00AF0A0319B00A71
:103B74002D0884002E0885000008C03F8908031D15
:103B8400C42DC52DA82D08002D343E3420344534D1
:103B9400523452344534553452343A342034003497
:103BA4000034003400340034003400340034003471
:103BB4000D340A340034003400340034003400344A
:103BC400003400340D340A3400340034003400343A
:103BD40000340034003400342000B500B301B401D3
:103BE400062E3208AF00B0012F08A6003008A70047
:103BF4002E08B1003108A8009131E6219D31013031
:103C04002000B3070030B43D33083507AF002F0858
:103C14008600023087000108B0003008B200320884
:103C2400031D152E162EF32D0800F40070087104E0
:103C340003191D2E1E2E312E7435C83E8600013008
:103C440087007008C03F7108C13F7208F300740810
:103C5400D43E86000130870073088100402E7435FD
:103C6400C83E8600013087002C30C03F1930C13F68
:103C74007408D43E860001308700810108002000CA
:103C8400A401A50122000D1606302000A300303047
:103C9400890B4A2EA30B4A2E000022000D12063077
:103CA4002000A3003030890B552EA30B552E0000A5
:103CB40001302000A4070030A53D2508803AA30068
:103CC40080302302031D682E32302402031C6B2E25
:103CD4006C2E442E0800230064100230FA007A0887
:103CE400E3007C2E99316C219E31992E99317121FA
:103CF4009E31992E5608FA007A08F9000430C83E1D
:103D0400860001308700413F8A00403F0A009E310F
:103D1400FB00FC017C08003A0319912E782E7B08E5
:103D2400023A0319742E013A0319742E782E0800EE
:103D34002000A40021006C080319A12EA22E9C2EA1
:103D4400111AA52EA62EAB2E2000240823009A00BB
:103D5400C42E111220002408A3007D084D3E8600C5
:103D640001308700230881000130A3002308FD07E8
:103D740008307D02031CBF2EC02EC12EFD01013070
:103D84002100EC0221001116080099313D219E31D9
:103D94002300641CCE2ECF2EDD2E99318A219E3134
:103DA400003A0319D62ED72EDD2E0F302000A000A6
:103DB40020082300E200230062082000A000A101E3
:103DC400A035A10D0030200784009830213D8500E6
:103DD400013F8A00003F0A009E312000A200220811
:103DE4002300E20008002300E415052F99316C211B
:103DF4009E31232F99313A219E310330232F99315B
:103E040071219E31232F5408FA007A08F9004908D9
:103E14008A0048080A009F31FB00FC017C08003A34
:103E24000319152F012F7B08013A0319012F033AB7
:103E34000319F82E013A0319F82E073A0319FC2E38
:103E4400012F08002000AC003F2F2908BF3E9B3102
:103E540097239F31522F2908933E9B3197239F31FB
:103E6400522F2908D33E9B3197239F31522F290883
:103E74007F3E9B3197239F31522F2C08AA00AB0120
:103E84002B08003A0319472F392F2A08023A03193D
:103E9400272F013A03192D2F073A0319332F392FEE
:103EA40008002100AA00200065082100AC002000C1
:103EB40064082100AB00DF01E001762FAB30200065
:103EC400E7006708DD006608E8006808DE002100F6
:103ED4002A089631DE269F3120005D082100DF0785
:103EE40020005E082100E03D2B0884002C0885009A
:103EF4001200031D7E2F7F2F602F60082000E50035
:103F040021005F082000E40008002100B400AF3065
:103F14002000E90069082100B30034082000E9000A
:103F240069082100B500B601B701B801B9012E082E
:103F34002000E50021002D082000E400B330E90052
:103F44006908E600B5309F3153279F31200065088A
:103F54002100B200200064082100B10036083407B3
:103F64002000E900690886000230870081012100F1
:103F74003208AE003108AD00080020006C08453E50
:103F8400860001308700810123001D1DCA2FCB2F1D
:103F9400D82F20006C08453E86000130870081142C
:103FA40022005C088A005B080A009F3123009D1CE4
:103FB400DC2FDD2FEA2F20006C08453E86000130FF
:103FC4008700011522005A088A0059080A009F3107
:103FD40020006C08453E8600013087000108031963
:103FE400F42FF52FFC2F220058088A0057080A00E6
:103FF4009F31FF2F9B31E2239F31080041347434F9
:10400400743465346E3474346534203476346134F5
:104014006C34693464346134743469346F346E34A8
:1040240020346C3465346434203472346F34753421
:10403400673465340D340A3400342D343E3420346E
:10404400503452344F344734523441344D344D3467
:104054004134543449344F344E3420345434453488
:1040640052344D3449344E34453445340D340A34D5
:1040740000342D343E342034503452344F344734D9
:10408400523441344D344D344134543449344F3432
:104094004E34203445344E34203443344F34553474
:1040A400523453340D340A3400342D343E34203425
:1040B4004534523452344534553452342034503417
:1040C40052344F344734523441344D344D344134F6
:1040D400543449344F344E340D340A3400342D34BE
:1040E4003E342034543445345334543420344D3421
:1040F40041344E34553445344C34203445344E34F4
:10410400203443344F345534523453340D340A3448
:10411400003441345434543445344E3454344534E6
:104124002034563441344C344934443441345434C6
:1041340049344F344E3420344C34453444345334AD
:104144000D340A3400342D343E342034453446349E
:1041540046344134433445344D3445344E34543478
:10416400203445344E34203443344F34553452349F
:1041740053340D340A3400342D343E342034453461
:10418400463446344134433445344D3445344E3456
:10419400543420345434453452344D3449344E3438
:1041A40045340D340A3400342D343E34203446343E
:1041B40049344E3420345434453453345434203444
:1041C4004D3441344E34553445344C340D340A3472
:1041D4000034453452345234453455345234203446
:1041E400503452344F344734523441344D344D34C6
:1041F4004134543449344F344E34003450345234FE
:104204004534533453344534523420344F344B34CE
:1042140020344F34553420344534523452344534E8
:1042240055345234003441345434543445344E34C7
:1042340054344534203441344334513455344934AE
:104244005434543445344D3445344E3454340034A9
:104254002D343E3420344134703470347534793420
:1042640065347234203473347534723420344F34EA
:104274004B340D340A3400345434453453345434F8
:1042840020345234313420344F34463446342034CC
:104294002D3420345234323420344F344E340034EC
:1042A4005434453453345434203452343234203466
:1042B4004F344634463420342D342034523433348D
:1042C40020344F344E3400342D343E3420345434AE
:1042D4004534533454342034413443345134553404
:1042E40049345434543445340D340A340034543489
:1042F40045345334543420344334413452345434E4
:104304004534203444343934323435344534443437
:104314003434003456344534523449344634493400
:1043240045345234203450343134203445345434F8
:1043340020345034323400345234453453345534F8
:104344004C34543441345434203443344F344E3494
:104354004634493452344D344534003454344534AD
:104364005334543420344E344F344E342034433494
:104374004F344E3446344F3452344D344534003483
:10438400463449344E342034503452344F34473454
:10439400523441344D344D344134543449344F341F
:1043A4004E34003450344F34533449345434493443
:1043B4004F344E344E344534523420344334413433
:1043C400523454344534003454344534533454341E
:1043D400203433342034523445344C344134493459
:1043E400533420344F3446344634003443344C344C
:1043F40041345634493445345234203445344334FA
:104404004C3441344934523445343F34003450340C
:1044140052344534533453344534523420344F34B5
:104424004B3420342F3420344E344F344B34003446
:1044340054344534533454342034333420345234D3
:1044440045344C3441344934533420344F344E349D
:104454000034543445345334543420344C344534C7
:104464004434203443344C34413456344934453490
:104474005234003443344C34413456344934453492
:104484005234203445345434453449344E3454344D
:104494003F340034543445345334543420344C348D
:1044A4004534443453342034433441345234543442
:1044B400453400344534523452344534553452343E
:1044C4002034563441344C3449344434453445342E
:1044D4000034463449344E3420344534463446346A
:1044E4004134433445344D3445344E34543400342B
:1044F400543445345334543420344C3445344434E3
:10450400203452344F345534473445340034543411
:1045140045345334543420344C34453444342034F6
:1045240056344534523454344534003454344534C8
:104534005334543420344C344534443420344234D9
:104544004C3445345534453400344D344F344434BC
:1045540055344C34453420344534533443344C348A
:10456400413456344534003454344534533454348B
:10457400203442344C345534453454344F344F345D
:10458400543448340034413450345034553459345C
:1045940045345234203453345534523420344F3457
:1045A4004B3400344D3461347334743465347234B0
:1045B400203465346E342034743465347334743484
:1045C40000342D343E34203454344534533454347C
:1045D40020344F34463446340D340A3400344D34D8
:1045E4004F34443455344C34453420344D34413400
:1045F40049345434523445340034523445345434F8
:1046040049345234453452342034433441345234DE
:104614005434453400344C34453444345334203415
:1046240041344C344C3455344D344534453453348E
:1046340000342D343E34203454344534533454340B
:1046440020344F344E340D340A3400342D343E3487
:10465400203454344534533454343A3431343034BB
:104664003A34313400342D343E3420345434453417
:10467400533454343A34313432343A3431340034E7
:104684002D343E34203454344534533454343A3481
:10469400313433343A34313400342D343E3420341C
:1046A40054344534533454343A34313434343A344D
:1046B400313400342D343E342034543445345334AE
:1046C40054343A34313435343A34313400342D34BA
:1046D4003E34203454344534533454343A3431342D
:1046E40036343A34313400342D343E3420345434A6
:1046F4004534533454343A34313437343A3431341D
:1047040000342D343E34203454344534533454343A
:104714003A34313438343A3431340034543445344E
:1047240053345434203448344F3452344C344F349A
:104734004734453400342D343E3420345434453425
:10474400533454343A3431343A34313400342D341B
:104754003E34203454344534533454343A343234AB
:104764003A34313400342D343E3420345434453416
:10477400533454343A3433343A34313400342D34E9
:104784003E34203454344534533454343A34343479
:104794003A34313400342D343E34203454344534E6
:1047A400533454343A3435343A34313400342D34B7
:1047B4003E34203454344534533454343A34363447
:1047C4003A34313400342D343E34203454344534B6
:1047D400533454343A3437343A34313400342D3485
:1047E4003E34203454344534533454343A34383415
:1047F4003A34313400342D343E3420345434453486
:10480400533454343A3439343A343134003454342B
:104814004534533454342034533446344C344134C2
:10482400533448340034463449344E342034443408
:1048340045342034543445345334543400345634D9
:104844004F344934523420344134503450344C348D
:1048540049340034543445345334543420345234B9
:10486400313420344F344E340034453454344134DC
:1048740050344534203431343034003445345434E5
:1048840041345034453420343134323400345434D7
:1048940045345334543420344234503432340034A4
:1048A4004534543441345034453420343134333471
:1048B4000034453454344134503445342034313494
:1048C4003434003445345434413450344534203481
:1048D400313435340034453454344134503445345F
:1048E4002034313436340034453454344134503473
:1048F400453420343134373400344534543441346D
:10490400503445342034313438340034543445344C
:104914005334543420344F344B34003445345434F9
:104924004134503445342034313400345434453423
:1049340053345434203450343134003445345434F2
:104944004134503445342034323400345434453402
:1049540053345434203450343234003445345434D1
:1049640041345034453420343334003445345434E1
:1049740041345034453420343434003445345434D0
:1049840041345034453420343534003445345434BF
:1049940041345034453420343634003445345434AE
:1049A400413450344534203437340034453454349D
:1049B400413450344534203438340034453454348C
:1049C400413450344534203439340034253464348B
:0249D4000034AD
:020000040001F9
:08000000FF3FFF3FFF3FFF3F00
:04000E00E43FFF3F8D
:00000001FF
