:1000000080314A28053008007E1480310B1F0928F2
:100010000A2848282100111E0E280F281B2820001E
:10002000111E132814281B28210066088A00650861
:100030000A00803148282100911E1F2820282C28E2
:100040002000911E242825282C2822005E088A00E2
:100050005D080A00803148282100921D302831288F
:100060003D282000921D352836283D2821006808AB
:100070008A0067080A00803148282100911D412824
:10008000422848282000911D46284728482836281D
:100090007E10090080314C28210099315C2180318B
:1000A000EE00013084009E308500A03086000130D3
:1000B000870028308731FA2780314C3084009B300C
:1000C0008500403086000230870014308731FA27DF
:1000D0008031FD012000EA01EB01EC01DF308400FA
:1000E000003085000F309931CD21803145308400BA
:1000F000013085001C309931CD218031C830840019
:100100000130850025309931CD21803120308400A7
:100110000230850020309931CD2180317E102000C1
:100120008B316F2BC7302000AE00A430AF005230AF
:10013000B000A130B1003A30B200A030B3003A3084
:10014000B400A030B50091318A21803101309A315C
:100150009422803115302200C2004B30C100BE30E5
:10016000890BB028C10BB028C20BB02800000030AA
:100170009A319422803115302200C2004B30C100E8
:10018000BE30890BC128C10BC128C20BC128000099
:1001900000309D316E258031003A0319D028D128D6
:1001A000E32801309D3191258031003A0319D92887
:1001B000DA28E328E0302100AD00A330AE009B3107
:1001C0007523803109292400E501C7302100B000E2
:1001D000A430B1006530B2000230B3006430B40026
:1001E0000230B50093314223803163302100B800E2
:1001F0000230B9006530BA000230BB006430BC0088
:100200000230BD006230BE000230BF009231842255
:1002100080312400650803190E290F29B629CF3033
:100220002000AE00A430AF001A30B000A230B10000
:10023000F830B200A130B3003A30B400A030B500BD
:1002400091318A21803101309A31942280310630F7
:100250002200C2001330C100AD30890B2D29C10B23
:100260002D29C20B2D29003200309A319422803181
:100270000B302200C2002630C1005D30890B3E29C0
:10028000C10B3E29C20B3E2900320C309C31E724C1
:100290008031200024082400E100200023082400ED
:1002A000E000D7302100AD00A430AE00240061088A
:1002B0002100B000240060082100AF0058309F31B9
:1002C000C827803121002E082400D50021002D08E8
:1002D0002400D4006108803A2200C100833041022A
:1002E000031D75292030240060020318782979291C
:1002F000842922008C17EC302100AD00A330AE0021
:100300009B3175238031AA29CF302100B000A43061
:10031000B1006530B2000230B3006430B400023086
:10032000B50093314223803122008C1363302100C9
:10033000B8000230B9006530BA000230BB0064304A
:10034000BC000230BD006230BE000230BF009231FE
:100350008422803129302200C2009630C1007F30D3
:10036000890BB029C10BB029C20BB0292400650844
:100370000319BB29BC29772A26302000AE00A430FF
:10038000AF001A30B000A230B1002B30B200A23062
:10039000B3003A30B400A030B50091318A218031E9
:1003A00001309A319422803106302200C20013308D
:1003B000C100AD30890BDA29C10BDA29C20BDA2969
:1003C000003200309A31942280310B302200C2007A
:1003D0002630C1005D30890BEB29C10BEB29C20B24
:1003E000EB2900320C309C31E724803120002408B6
:1003F0002400E100200023082400E000D730210081
:10040000AD00A430AE00240061082100B00024003B
:1004100060082100AF0058309F31C827803121008B
:100420002E082400D70021002D082400D6006108E2
:10043000803A2200C10082304102031D222A8A3004
:10044000240060020318252A262A312A22008C1350
:1004500017302100AD00A330AE009B3175238031F1
:100460006B2A26302100B000A430B1006530B20004
:100470000230B3006430B4000230B500933142233F
:10048000803126302000AE00A430AF001A30B0001A
:10049000A230B1005830B2000230B3003A30B4009C
:1004A000A030B50091318A21803122008C17633051
:1004B0002100B8000230B9006530BA000230BB003C
:1004C0006430BC000230BD006230BE000230BF00AC
:1004D00092318422803129302200C2009630C1003E
:1004E0007F30890B712AC10B712AC20B712A24003B
:1004F000650803197C2A7D2A492B2F302000AE0085
:10050000A430AF00F830B000A330B1003A30B200F0
:10051000A030B3003A30B400A030B50091318A2148
:1005200080310B302200C2002630C1005D30890BC3
:10053000972AC10B972AC20B972A003201309A31B1
:100540009422803106302200C2001330C100AD3049
:10055000890BA82AC10BA82AC20BA82A0032003096
:100560009A31942280313D302200C200E130C10036
:100570003F30890BB92AC10BB92AC20BB92A003204
:1005800001309A319422803106302200C2001330AB
:10059000C100AD30890BCA2AC10BCA2AC20BCA2AB4
:1005A000003200309A319422803110302200C20093
:1005B0003930C1000D30890BDB2AC10BDB2AC20B9D
:1005C000DB2A003201309D314B258031003A03197E
:1005D000EA2AEB2A062B01309D316E258031003A44
:1005E0000319F32AF42A062B00309D31912580311E
:1005F000003A0319FC2AFD2A062B24302100AD0005
:10060000A330AE009B3175238031342B2400E501EB
:1006100000309A319422803100309A31A122803109
:100620002F302100B000A430B1006530B20002309C
:10063000B3006430B4000230B500933142238031FE
:1006400063302100B8000230B9006530BA000230D2
:10065000BB006430BC000230BD006230BE0002301E
:10066000BF0092318422803115302200C2004B300D
:10067000C100BE30890B3A2BC10B3A2BC20B3A2B6F
:10068000000000309A319422803100309A31A1224A
:1006900080312400650803194E2B4F2BBD2B4130B0
:1006A0002000AE00A430AF003B30B000A230B1005B
:1006B000FC30B200A230B3000930B400A230B50063
:1006C00091318A21803101309A3194228031063073
:1006D0002200C2001330C100AD30890B6D2BC10B5D
:1006E0006D2BC20B6D2B003200309A319422803179
:1006F0008B302100AD00A030AE009B3175238031DE
:10070000240063089431572480312200C10041083D
:100710002400E4006408031D8E2B8F2BB52BE5010C
:1007200041302100B000A430B1006530B200023089
:10073000B3006430B4000230B500933142238031FD
:1007400063302100B8000230B9006530BA000230D1
:10075000BB006430BC000230BD006230BE0002301D
:10076000BF00923184228031BD2B31302100AD0099
:10077000A330AE009B317523803124006508031936
:10078000C22BC32B432C4A302000AE00A430AF0054
:100790003830B000A430B1003A30B200A030B3001D
:1007A0003A30B400A030B50091318A218031013057
:1007B0009A31A122803106302200C2001330C100DC
:1007C000AD30890BE12BC10BE12BC20BE12B0032C9
:1007D00000309A31A12280310B302200C200263035
:1007E000C1005D30890BF22BC10BF22BC20BF22B37
:1007F000003201309D314B258031003A0319012C24
:10080000022C1D2C01309D316E258031003A0319D8
:100810000A2C0B2C1D2C01309D3191258031003A82
:100820000319132C142C1D2C3E302100AD00A330D5
:10083000AE009B3175238031432C2400E5014A3002
:100840002100B000A430B1006530B2000230B30026
:100850006430B4000230B5009331422380316330FC
:100860002100B8000230B9006530BA000230BB0088
:100870006430BC000230BD006230BE000230BF00F8
:10088000923184228031240065080319482C492CB8
:10089000C92C53302000AE00A430AF007F30B00030
:1008A000A330B1003A30B200A030B3003A30B40007
:1008B000A030B50091318A21803101309A31C822AF
:1008C000803106302200C2001330C100AD30890BE8
:1008D000672CC10B672CC20B672C003200309A3199
:1008E000C82280310B302200C2002630C1005D30AA
:1008F000890B782CC10B782CC20B782C003200307D
:100900009D314B258031003A0319872C882CA32C6C
:1009100000309D316E258031003A0319902C912CC6
:10092000A32C00309D3191258031003A0319992C78
:100930009A2CA32C4B302100AD00A330AE009B318C
:1009400075238031C92C2400E50153302100B0000B
:10095000A430B1006530B2000230B3006430B4009E
:100960000230B50093314223803163302100B8005A
:100970000230B9006530BA000230BB006430BC0000
:100980000230BD006230BE000230BF0092318422CE
:100990008031240065080319CE2CCF2C492D5C3002
:1009A0002000AE00A430AF008730B000A430B1000A
:1009B0003A30B200A030B3003A30B400A030B500F5
:1009C00091318A21803101309A31AE228031193043
:1009D0002200C2005A30C100B130890BED2CC10B8E
:1009E000ED2CC20BED2C003200309A31AE2280315A
:1009F0000B302200C2002630C1005D30890BFE2C76
:100A0000C10BFE2CC20BFE2C003201309D314B2558
:100A10008031003A03190D2D0E2D292D01309D3105
:100A20006E258031003A0319162D172D292D01301E
:100A30009D3191258031003A03191F2D202D292D3C
:100A400058302100AD00A330AE009B3175238031BA
:100A5000492D5C302100D700A430D8006530220039
:100A6000C10041082100D90064302200C2004208C0
:100A70002100DA0063302200C30043082100DB00BC
:100A800062302200C40044082100DC008831662066
:100A900080312400650803194E2D4F2DCF2D653070
:100AA0002000AE00A430AF009730B000A430B100F9
:100AB0003A30B200A030B3003A30B400A030B500F4
:100AC00091318A21803101309A31BB228031193035
:100AD0002200C2005A30C100B130890B6D2DC10B0C
:100AE0006D2DC20B6D2D003200309A31BB2280314A
:100AF0000B302200C2002630C1005D30890B7E2DF4
:100B0000C10B7E2DC20B7E2D003200309D314B2556
:100B10008031003A03198D2D8E2DA92D00309D3185
:100B20006E258031003A0319962D972DA92D00309E
:100B30009D3191258031003A03199F2DA02DA92DBB
:100B400065302100AD00A330AE009B3175238031AC
:100B5000CF2D2400E50165302100B000A430B100A4
:100B60006530B2000230B3006430B4000230B5002A
:100B700093314223803163302100B8000230B90044
:100B80006530BA000230BB006430BC000230BD00EA
:100B90006230BE000230BF009231842280312400D6
:100BA00065080319D42DD52D352E6E302000AE00EA
:100BB000A430AF00B430B000A230B1001030B200A9
:100BC000A430B3000930B400A230B50091318A21BD
:100BD00080319C31A924803124006308943157244A
:100BE00080312200C10041082400E4006408031D94
:100BF000FA2DFB2D2D2EE5016E302100B000A43022
:100C0000B1006530B2000230B3006430B40002308D
:100C1000B50093314223803163302100B8000230A7
:100C2000B9006530BA000230BB006430BC0002304D
:100C3000BD006230BE000230BF009231842280319C
:100C400029302200C2009630C1007F30890B262E49
:100C5000C10B262EC20B262E352E72302100AD0080
:100C6000A330AE009B317523803124006508031941
:100C70003A2E3C2E8B31972B04302000AE00A4304E
:100C8000AF00B930B000A130B100EE30B200A230F8
:100C9000B3001530B400A130B50091318A21803104
:100CA00001309A316D22803100309A3160228031DA
:100CB0009D310825803163302100B0000230B10041
:100CC0006530B2000230B3009231DB2280316530F2
:100CD0002100B0000230B1006430B2000230B30035
:100CE0006330B4000230B5006230B6000230B700A5
:100CF00091314021803129302200C2009630C1005C
:100D00007F30890B812EC10B812EC20B812E3A2E92
:100D100080314A282000CA003F08D3004008D40090
:100D20004108D5004208D6004308D7004408D8003F
:100D30004508D9004608DA005330860000308700A5
:100D4000473FC700C71BA52EA72E0130A82E003095
:100D50002000C800C9014808D1004908D200510844
:100D600052040319B42EB52ED32ED309D409D509B4
:100D7000D609D709D809D909DA09D30A031DD32E10
:100D8000D40A031DD32ED50A031DD32ED60A031D64
:100D9000D32ED70A031DD32ED80A031DD32ED90A6A
:100DA000031DD32EDA0A2100E21BD72ED82EDC2E0B
:100DB000FD30E305FF30E4056208803A2000C700FB
:100DC00080304702031DE72E013021006102031825
:100DD000EA2EEB2EF12E01302000CD000030CE00A7
:100DE000F92E210062082000CE00210061082000B9
:100DF000CD00220056082000D00022005508200017
:100E0000CF0051085204031D062F072F0C2F21007D
:100E1000631D0B2F0C2F112FFF302000CF07FF3049
:100E2000D03D1F302000DB000030DC002400BF017B
:100E3000822FFF302000DB07FF30DC3D0A30A300AB
:100E4000A401A501A601A701A801A901AA015308AF
:100E5000AB005408AC005508AD005608AE0057086A
:100E6000AF005808B0005908B1005A08B2009431D8
:100E7000EC24863120002408B7002308B6009C31FA
:100E80006E24863120003608303EC7005B08203EC5
:100E900086000230870047088100FF30CD07FF3011
:100EA000CE3DFF30CF07FF30D03D0A30A300A40174
:100EB000A501A601A701A801A901AA015308AB0039
:100EC0005408AC005508AD005608AE005708AF00F6
:100ED0005808B0005908B1005A08B2009531D92518
:100EE000863120002308D3002408D4002508D5002B
:100EF0002608D6002708D7002808D8002908D900D6
:100F00002A08DA0020005C08803AC70080304702D7
:100F1000031D8C2F01305B02031C8F2F902FBD2FE0
:100F20002000530854045504560457045804590427
:100F30005A04031D9C2F9D2F192F4E08803AC7007D
:100F400080304702031DA62F01304D020318A92F40
:100F5000AA2F192F20005008803AC700803047027E
:100F6000031DB42F01304F02031CB72FB82FBD2F24
:100F70002100E318BC2FBD2F192F20005108520467
:100F8000031DC32FC42FC92F2100631DC82FC92FD4
:100F9000E62FFF302000DB07FF30DC3D5108520414
:100FA000031DD32FD42FD92F2B30CB000030CC00F2
:100FB000DD2F2D30CB000030CC004B08C7005B0884
:100FC000203E8600023087004708810020005B0831
:100FD000203EC7004708B6005008B8004F08B700C9
:100FE0004A0888310A20863120003708C0003608B8
:100FF000BF000800FE0012001E00FE0BFB2F003495
:10100000C030240094000830950096014F309200C3
:10101000951208002000BE002100631C1028112832
:101020001A2820003E08B9003908AE003608903171
:10103000002088312000B81B1E281F2824283808CB
:10104000BD003708BC002628BC01BD01BA01BB01A8
:101050003A2820302000A6000030A7003E08B90042
:101060003908A8009131DB21883101302000BA070E
:101070000030BB3D3B08803AB9003D08803A390258
:10108000031D44283C083A02031C47284828292805
:10109000210063184C284D28562820003E08B9002E
:1010A0003908AE003608903100208831200036081B
:1010B000A3000230A4009C310324883120003C08A6
:1010C0002307B6003D08243DB700080040308600E5
:1010D000023087002A30840001308500143021005E
:1010E000DD0016001A00DD0B7128B43086000130D7
:1010F000870020308400013085000A30DD001600B2
:101100001A00DD0B7F2801309A317A2288310130B4
:101110009A318722883100309A316D22883121003E
:1011200058082000AF00210057082000AE00B03062
:10113000B000A130B1008C30B200A130B30000305B
:10114000B400A130B50091318A2188312A302000C5
:10115000B3000130B400210058082000B60021007F
:1011600057082000B5009B318B23883120003408BC
:101170002200BF00200033082200BE003F082000EC
:10118000B40022003E082000B3002030B50001303A
:10119000B6009B318B238831200034082100AE003B
:1011A000200033082100AD009B3175238831903138
:1011B000F820883121005B08860002308700010892
:1011C0009431572488312100DD005D082200C000E1
:1011D0000B302100DE002630DD005D30890BEE286B
:1011E000DD0BEE28DE0BEE2800322200400803194A
:1011F000FA28FB282F292100590886000230870091
:1012000081015A0886000230870081015C3020008D
:10121000AE00A430AF00B530B000A130B1009E30B8
:10122000B200A130B3001530B400A130B500913147
:101230008A218831DB302100B8000030B900D93074
:10124000BA000030BB00DA30BC000030BD00DC303A
:10125000BE000030BF00923184228831B7295C3053
:101260002000AE00A430AF008730B000A430B10041
:101270003A30B200A030B3003A30B400A030B5002C
:1012800091318A21883100309A317A2288310130B7
:101290009A318722883100309A316D2288310130AD
:1012A0009A31AE22883119302100DE005A30DD003B
:1012B000B130890B5929DD0B5929DE0B5929003230
:1012C00000309A31AE22883115302100DE004B30DB
:1012D000DD00BE30890B6A29DD0B6A29DE0B6A2925
:1012E000000001309D314B258831003A03197929DE
:1012F0007A29A12901309D316E258831003A0319E0
:1013000082298329A12901309D3191258831003A14
:1013100003198B298C29A1295C302000AE00A43050
:10132000AF008730B000A430B1004B30B200A23023
:10133000B3007730B400A430B50091318A218831F0
:10134000B7292100590886000230870081015C30EE
:10135000B000A430B100D930B2000030B300DA30B0
:10136000B4000030B5009331422388311A290800B7
:101370002100B600B501682B20000F19C029C12932
:10138000DC2971302100AD00A030AE009B31752307
:1013900089312100B501B50A360886000230870080
:1013A0008101310886000230870081013008860003
:1013B000023087008101810A20006A080319E129AF
:1013C000E229682B9F31652789312100B20032085C
:1013D000B400492B01000A302100AD00A330AE005B
:1013E0009B31752389312100360886000230870041
:1013F0008101810A30088600023087008101810A5C
:101400003108860002308700810102302100B300DC
:101410000430B200BA30890B0B2AB20B0B2AB30B83
:101420000B2A00002100B501B50A682B5730AD002A
:10143000A030AE009B317523893179302000AE0099
:10144000A130AF003A30B000A030B100EB30B200B4
:10145000A030B3003A30B400A030B50091318A21F9
:101460008931210036088600023087008101810A17
:1014700002302100B3000430B200BA30890B3E2A9A
:10148000B20B3E2AB30B3E2A00002100B501B50A7B
:101490003008860002308700810122008C13682BFF
:1014A0003B30AD00A030AE009B31752389317930DF
:1014B0002000AE00A130AF003A30B000A030B10043
:1014C000C630B200A130B3003A30B400A030B5004D
:1014D00091318A2189312100360886000230870047
:1014E0008101810A300886000230870081013108BD
:1014F000860002308700810102302100B3000430F1
:10150000B200BA30890B822AB20B822AB30B822A2C
:1015100000002100B501B50A22008C17682B1F308E
:10152000AD00A030AE009B317523893179302000A9
:10153000AE00A130AF003A30B000A030B100C230F0
:10154000B200A130B3003A30B400A030B500913100
:101550008A21893121003608860002308700810106
:10156000810A02302100B3000430B200BA30890B86
:10157000B72AB20BB72AB30BB72A00002100B50176
:10158000B50A3008860002308700810122008C13E2
:10159000682BA530AD00A030AE009B31752389319A
:1015A00079302000AE00A130AF003A30B000A0305A
:1015B000B1005E30B200A230B3003A30B400A030C7
:1015C000B50091318A218931210036088600023028
:1015D00087008101810A300886000230870081017E
:1015E00031088600023087008101810A0230210023
:1015F000B3000430B200BA30890BFC2AB20BFC2ACB
:10160000B30BFC2A00002100B501B50A22008C179B
:10161000682BBE30AD00A030AE009B317523893100
:1016200079302000AE00A130AF003A30B000A030D9
:10163000B1005A30B200A230B3003A30B400A0304A
:10164000B50091318A2189312100360886000230A7
:1016500087008101810A30088600023087008101FD
:1016600031088600023087008101810A02302100A2
:10167000B3000430B200BA30890B3C2BB20B3C2BC8
:10168000B30B3C2B00002100B501B50A22008C13DE
:10169000682B3408B200B3013308003A0319512B08
:1016A000682B3208303A0319EA29013A0319EB2969
:1016B000043A0319092B033A0319162A013A0319AC
:1016C000502A0F3A0319C92A013A03198F2A682BA5
:1016D0002100350803196D2B6E2BBC2908009B31A6
:1016E00039238B318B170B179A3130228B314E30C7
:1016F0009331CB238B312400E501E401E301E201C6
:10170000E20ADE01DE0A20008E1A872B882B8A2B44
:101710002400DE0115302200C2004B30C100BE3073
:10172000890B902BC10B902BC20B902B0000220039
:101730008C1320000E1C9D2B9E2BA22B2400DF015E
:10174000DF0AA42B2400DF0120008E18A82BA92B70
:10175000AA2BAA2B24005E08031DAF2BB02BC52B90
:1017600079302000AE00A130AF009630B000A2303A
:10177000B100D430B200A130B300C330B400A23005
:10178000B50091318A218B31EA2B79302000AE00EF
:10179000A130AF00E030B000A230B100D430B200D0
:1017A000A130B300C330B400A230B50091318A211A
:1017B0008B31EA2B65302200C10041082100B000C6
:1017C00062302200C20042082100B100633089313A
:1017D000B8218B31240065080319EF2BF02BDA2B8D
:1017E000E2019D31B4258B312400E501E50A00308A
:1017F0009A316D228B3100309A317A228B3101304F
:101800009A3187228B3103302200C2000830C10098
:101810007730890B092CC10B092CC20B092C7F30A6
:101820002000AE00A430AF00A530B000A230B1005F
:101830003A30B200A030B3003A30B400A030B50066
:1018400091318A218B31240016141618282C292C4A
:10185000252C3230910014182E2C2F2C2B2C1419DF
:10186000322C332C2F2C193091001418382C392C91
:10187000352C14193C2C3D2C392C96149618412CDF
:10188000422C3E2C333091001418472C482C442C09
:1018900014194B2C4C2C482C9615141C502C512CE4
:1018A0004D2C11082200C10041082400DD009616CD
:1018B0001616161A5C2C5D2C592C16151619612C4F
:1018C000622C5E2C55305D06031D672C682C872C1E
:1018D00022001014101590149D31B4258B319D31C8
:1018E000B4258B319D31B4258B319D31B4258B319D
:1018F0009D31B4258B319D31B4258B319D31B4257B
:101900008B319D31B4258B319D31B4258B31033022
:101910002200C2000830C1007730890B8D2CC10B2A
:101920008D2CC20B8D2CCB302200C200EC30C100BC
:101930008430890B992CC10B992CC20B992C000077
:101940009D31B4258B31010001309A3194228B31C5
:1019500001309A31A1228B3115302200C2004B3068
:10196000C100BE30890BB22CC10BB22CC20BB22C01
:10197000000001309A3160228B3129302200C200F0
:101980009630C1007F30890BC32CC10BC32CC20B16
:10199000C32C01309D314B258B31003A0319D12CDA
:1019A000D22CED2C01309D316E258B31003A03197C
:1019B000DA2CDB2CED2C01309D3191258B31003A56
:1019C0000319E32CE42CED2C8C302100AD00A33066
:1019D000AE009B3175238B311B2D2400E5010030B7
:1019E0009A3194228B3100309A31A1228B317F3091
:1019F0002100B000A430B1006530B2000230B30065
:101A00006430B4000230B500933142238B3163302F
:101A10002100B8000230B9006530BA000230BB00C6
:101A20006430BC000230BD006230BE000230BF0036
:101A3000923184228B3115302200C2004B30C1001C
:101A4000BE30890B212DC10B212DC20B212D000091
:101A500000309A3194228B3100309A31A1228B319F
:101A6000240065080319352D362DA92D8F3020004F
:101A7000AE00A430AF00E630B000A130B1003A3083
:101A8000B200A030B3003A30B400A030B5009131BC
:101A90008A218B3100309A3194228B3100309A3177
:101AA000A1228B310B302200C2002630C1005D30F4
:101AB000890B582DC10B582DC20B582D0032013007
:101AC0009D314B258B31003A031D672D682D832DE9
:101AD00001309D316E258B31003A031D702D712D23
:101AE000832D01309D3191258B31003A031D792DD5
:101AF0007A2D832D98302100AD00A330AE009B31AC
:101B000075238B31A92D2400E5018F302100B00011
:101B1000A430B1006530B2000230B3006430B400CC
:101B20000230B500933142238B3163302100B8007D
:101B30000230B9006530BA000230BB006430BC002E
:101B40000230BD006230BE000230BF0092318422FC
:101B50008B31240065080319AF2D8D31B12D8E31E5
:101B6000252E9F302000AE00A430AF006930B000B9
:101B7000A230B1003A30B200A030B3003A30B40025
:101B8000A030B50091318A218D3101309A319422F3
:101B90008D3106302200C2001330C100AD30890BF8
:101BA000CF2DC10BCF2DC20BCF2D003200309A317B
:101BB00094228D3124005F080319DF2DE02D252E9E
:101BC00000302100AD00A030AE009B3175238D3177
:101BD00024006308943157248D312200C10041084C
:101BE0002400E4006408031DF62DF72D1D2EE501E9
:101BF0009F302100B000A430B1006530B200023047
:101C0000B3006430B4000230B500933142238D310B
:101C100063302100B8000230B9006530BA000230EC
:101C2000BB006430BC000230BD006230BE00023038
:101C3000BF00923184228D31252EA4302100AD00C9
:101C4000A330AE009B3175238D3124006508031944
:101C50002A2E2B2E962EA7302000AE00A430AF00E7
:101C60008730B000A230B1003A30B200A030B300EB
:101C70003A30B400A030B50091318A218D31013065
:101C80009A3194228D3106302200C2001330C100F7
:101C9000AD30890B492EC10B492EC20B492E0032A3
:101CA00000309A3194228D3124005F080319592E97
:101CB0005A2E962E6308943157248D312200C1008C
:101CC00041082400E4006408031D672E682E8E2E50
:101CD000E501A7302100B000A430B1006530B200AA
:101CE0000230B3006430B4000230B50093314223B7
:101CF0008D3163302100B8000230B9006530BA0080
:101D00000230BB006430BC000230BD006230BE0057
:101D10000230BF00923184228D31962EB0302100E6
:101D2000AD00A330AE009B3175238D3124006508D2
:101D300003199B2E9C2E072FAF302000AE00A4303D
:101D4000AF007830B000A230B1003A30B200A0301D
:101D5000B3003A30B400A030B50091318A218D3102
:101D600001309A3194228D3106302200C2001330A6
:101D7000C100AD30890BBA2EC10BBA2EC20BBA2EE0
:101D8000003200309A3194228D3124005F0803190B
:101D9000CA2ECB2E072F6308943157248D31220091
:101DA000C10041082400E4006408031DD82ED92E88
:101DB000FF2EE501AF302100B000A430B100653046
:101DC000B2000230B3006430B4000230B500933189
:101DD00042238D3163302100B8000230B9006530F4
:101DE000BA000230BB006430BC000230BD0062307B
:101DF000BE000230BF00923184228D31072FBC30EB
:101E00002100AD00A330AE009B3175238D3124003D
:101E1000650803190C2F0D2F7B2FB7302000AE0063
:101E2000A430AF001B30B000A430B1003A30B20093
:101E3000A030B3003A30B400A030B50091318A210F
:101E40008D3101309A3194228D3115302200C2003B
:101E50004B30C100BE30890B2B2FC10B2B2FC20B77
:101E60002B2F000000309A3194228D311530220042
:101E7000C2004B30C100BE30890B3C2FC10B3C2F40
:101E8000C20B3C2F000001309D314B258D31003AB3
:101E900003194B2F4C2F552FC8302100AD00A33014
:101EA000AE009B3175238D317B2F2400E501B730C7
:101EB0002100B000A430B1006530B2000230B300A0
:101EC0006430B4000230B500933142238D31633069
:101ED0002100B8000230B9006530BA000230BB0002
:101EE0006430BC000230BD006230BE000230BF0072
:101EF000923184228D31240065080319802F812FAF
:101F0000F82FBF302000AE00A430AF003E30B0004C
:101F1000A130B1003A30B200A030B3003A30B40082
:101F2000A030B50091318A218D3101309A3194224F
:101F30008D3115302200C2004B30C100BE30890BFC
:101F40009F2FC10B9F2FC20B9F2F000000309A3193
:101F500094228D3115302200C2004B30C100BE30BA
:101F6000890BB02FC10BB02FC20BB02F0000003077
:101F70009D314B258D31003A0319BF2FC02FD22F31
:101F800001309D316E258D31003A0319C82FC92FBC
:101F9000D22FD4302100AD00A330AE009B31752389
:101FA0008D31F82F2400E501BF302100B000A430AE
:101FB000B1006530B2000230B3006430B4000230CA
:101FC000B500933142238D3163302100B8000230D7
:101FD000B9006530BA000230BB006430BC0002308A
:101FE000BD006230BE000230BF00923184228D31CC
:101FF000240065080319FE2F8031922881310929B8
:102000002000B500B301B40118283208AF00B001B8
:102010002F08A6003008A7002E08B1003108A8003C
:102020009131DB21903101302000B3070030B43D05
:1020300033083507AF002F088600023087000108FB
:10204000B0003008B2003208031D272828280528D0
:10205000080020006C08453E8600013087008101A1
:1020600023001D1D34283528422820006C08453ED9
:10207000860001308700811422005C088A005B081A
:102080000A00903123009D1C462847285428200030
:102090006C08453E860001308700011522005A0871
:1020A0008A0059080A00903120006C08453E8600DD
:1020B00001308700010803195E285F286628220086
:1020C00058088A0057080A00903169289C311D245D
:1020D00090310800993168219031FA0023005F089F
:1020E000860087017A0881000130FA007A08DF074C
:1020F0000130E0020030E13B6008610403198128EF
:102100008228872899317D2190310530AF28E41548
:1021100091289931B1219031AF289931AC2190317A
:10212000AF285408FA007A08F90049088A004808DC
:102130000A009031FB00FC017C08003A0319A12839
:102140008D287B08013A03198D28033A0319892841
:10215000013A03198928073A03198D288D280800A8
:102160002100911229302000A3001030A4009A31E0
:10217000152290312100111229302000A3001D30BA
:10218000A4009A311E229031083023009F00903025
:102190009D0024309E0040309B0003309C005B304B
:1021A0002000A3001930A4009A3103229031753029
:1021B0002000A3001930A4009A310C229031713014
:1021C0002000A3001930A4009931FA219031210098
:1021D000EB01FD01ED0108302000A50025082100DC
:1021E000EC002000EC01EB01EA012100911608004F
:1021F0002000A801A9012000AA01AB019E315326AD
:1022000090310B302000A7002630A6005D30890BEE
:102210000729A60B0729A70B072900320130200048
:10222000AA070030AB3D2B08803AA600803026027A
:10223000031D1C2904302A02031C1F292029FE2803
:102240000B302000A7002630A6005D30890B262920
:10225000A60B2629A70B2629003201302000A8074B
:102260000030A93D2908803AA60080302602031DCF
:102270003B2904302802031C3E293F29FB28080083
:10228000210034088600350887000108031D49290C
:102290004A295129D630AD00A030AE009B317523BC
:1022A0009131210030088600310887008101320811
:1022B00086003308870081013408860035088700CE
:1022C0008101360886003708870001308100003020
:1022D0009A316D22913100309A317A229131003059
:1022E0009A318722913100309A3160229131003049
:1022F0009A319422913100309A31A12291310030EB
:102300009A31AE22913100309A31BB2291312200B4
:102310008C1308009A312722913106309B31D22349
:10232000913102302000B7000430B600BA30890B7A
:102330009729B60B9729B70B972900002000A90110
:10234000A90A01309F313627913120002F08AA00B9
:102350002E08A9009C31C82491312000A901A90AA6
:1023600002309F313627913120003108AA00300811
:10237000A9009C31C82491312000A901A90A033089
:102380009F313627913120003308AA003208A90076
:102390009C31C82491312000A901A90A04309F3141
:1023A0003627913120003508AA003408A9009C3155
:1023B000C82491310800200028080319E029E129E8
:1023C000E6292808031DE529E629EB292608993185
:1023D000DA2191312C2A2808033E86008701160055
:1023E00001040319F429F529122A2808033E86005E
:1023F0008701403FA900413FAA00280A86008701C3
:10240000403FAB00413FAC002C08803AAD002A08A9
:10241000803A2D02031D0E2A29082B020318112AC7
:10242000122A2C2A20002608A900280886008701E5
:10243000280A8400850100080107AA002A088600EE
:102440000230870029088100280A860087010130B0
:10245000810741310318810A08009931BB2192316B
:10246000003A0319342A352A662A422A99319321DF
:102470009231832A993198219231832A9931A2216C
:102480009231832A23005708FA007A08F9000630AF
:10249000C83E860001308700413F8A00403F0A0065
:1024A0009231FB00FC017C08003A0319582A3E2AAD
:1024B0007B08013A03193E2A033A0319362A013AE6
:1024C00003193A2A073A03193E2A3E2A23006410C8
:1024D0001730C83E860001308700403F84008501E8
:1024E000810A000899318921923101302300E002EC
:1024F0000030E13B60086104031D7F2A802A822AA4
:102500000630832A03300800210038088600390885
:1025100087000108C000C1014008B0004108B100B7
:102520003A0886003B0887000108C200C301420840
:10253000B2004308B3009231DB22923121003A0805
:1025400086003B0887000108C000C1014008B000B8
:102550004108B1003C0886003D0887000108C20020
:10256000C3014208B2004308B300380886003908A6
:1025700087000108C400C5014408B4004508B5003F
:102580003E0886003F0887000108C600C7014608CC
:10259000B6004708B700913140219231293021001F
:1025A000C1009630C0007F30890BD42AC00BD42ADA
:1025B000C10BD42A08002100B7013B2B20000F19C2
:1025C000E22AE32AF82AD6302100AD00A030AE007E
:1025D0009B31752392312100B701B70A300886007C
:1025E00031088700810132088600330887008101A5
:1025F00020006A080319FD2AFE2A3B2B9F3165271C
:1026000092312100B4003408B6002B2B0100663053
:102610002100AD00A130AE009B3175239231210025
:1026200030088600310887008101320886003308AF
:102630008700810102302100B5000430B400BA30B7
:10264000890B202BB40B202BB50B202B0000210075
:10265000B701B70A3B2B3608B400B5013508003A7C
:102660000319332B3B2B3408303A0319062B043A59
:102670000319072B3B2B210037080319402B412B53
:10268000DE2A0800A030860001308700C1308400B7
:102690000030850014302100B60016001A00B60B79
:1026A0004D2BBE30860001308700B73084000030EB
:1026B00085000A30B60016001A00B60B5B2B0130FD
:1026C0009A317A22933101309A3187229331003046
:1026D0009A316D22933100309A316022933121007A
:1026E00031082000AF00210030082000AE00B030DB
:1026F000B000A130B1001530B200A130B3003A30C3
:10270000B400A030B50091318A219331C13020004E
:10271000B3000030B400210031082000B6002100D1
:1027200030082000B5009B318B2393312000340802
:102730002100D600200033082100D50056082000D3
:10274000B400210055082000B300B730B5000030B8
:10275000B6009B318B239331200034082100AE005A
:10276000200033082100AD009B3175239331903157
:10277000F820933120000F1DBE2BBF2BBA2B210058
:102780003208860033088700810134088600350846
:102790008700810108002000AB002B08A900290850
:1027A0002100E90000309B31602393319C302000F0
:1027B000A900D730890BDA2BA90BDA2B03309B3118
:1027C000D22393311A302000A900F830890BE62B70
:1027D000A90BE62B000003309B31D22393311A3032
:1027E0002000A900F830890BF32BA90BF32B000074
:1027F00003309B31D22393311A302000A900F830E6
:10280000890B002CA90B002C000002309B31D22335
:1028100093311A302000A900F830890B0D2CA90B38
:102820000D2C000028309B31D22393310230200040
:10283000AA000430A900BA30890B1C2CA90B1C2C4F
:10284000AA0B1C2C00000C309B31D2239331023098
:102850002000AA000430A900BA30890B2D2CA90B46
:102860002D2CAA0B2D2C000001309B31D22393314B
:1028700002302000AA000430A900BA30890B3E2C97
:10288000A90B3E2CAA0B3E2C000006309B31D22314
:10289000933102302000AA000430A900BA30890B1D
:1028A0004F2CA90B4F2CAA0B4F2C00000800200026
:1028B000A800A901AA01280803195F2C602CC32CC9
:1028C000BD2C6A080319652C662CBD2C9F31652729
:1028D00094312000A5002508A700A72C0100023094
:1028E0002000A6000430A500BA30890B752CA50B7A
:1028F000752CA60B752C00002000A901A90AAA01BD
:10290000AA0ABD2C02302000A6000430A500BA306F
:10291000890B882CA50B882CA60B882C0000200086
:10292000A9017F2C02302000A6000430A500BA3097
:10293000890B982CA50B982CA60B982C0000200036
:10294000A901A90AAA01AA0A22008C13BD2C2708F2
:10295000A500A6012608003A0319AF2CBD2C2508B6
:10296000303A03196E2C023A03196F2C013A0319FD
:10297000822C0A3A0319922CBD2C20002A08031934
:10298000C22CC32C612C2808031DC72CC82CEA2C90
:10299000E42C01309C3138249431003A0319D12CB5
:1029A000D22CD62C2000A901AA01AA0A01309C3100
:1029B00053249431003A0319DE2CDF2CE42C200040
:1029C000A901A90AAA01AA0A20002A080319E92CC8
:1029D000EA2CC92C290808002000B5012B308600FC
:1029E00000308700473FB300B31FF72CF82C1A2D97
:1029F0002000AB09AC09AD09AE09AF09B009B109B6
:102A0000B209AB0A031D172DAC0A031D172DAD0A21
:102A1000031D172DAE0A031D172DAF0A031D172D19
:102A2000B00A031D172DB10A031D172DB20A20008D
:102A3000B501B50A2330860000308700473F2000EB
:102A4000B300B31F242D252D442D2000A309A40974
:102A5000A509A609A709A809A909AA09A30A031D86
:102A6000442DA40A031D442DA50A031D442DA60AC6
:102A7000031D442DA70A031D442DA80A031D442D40
:102A8000A90A031D442DAA0A2000230824042504B2
:102A900026042704280429042A040319502D512D43
:102AA000A42DB401B40A602DA335A40DA50DA60D67
:102AB000A70DA80DA90DAA0D0130B3003308B40766
:102AC000AA1F632D642D542D2A083202031D822D66
:102AD00029083102031D822D28083002031D822D92
:102AE00027082F02031D822D26082E02031D822D8A
:102AF00025082D02031D822D24082C02031D822D82
:102B000023082B02031C852D862D962D2308AB024E
:102B10002408AC3B2508AD3B2608AE3B2708AF3B5D
:102B20002808B03B2908B13B2A08B23BAA36A90CB9
:102B3000A80CA70CA60CA50CA40CA30C0130B40285
:102B4000031DA32DA42D642D35080319A82DA92D2F
:102B5000C72DAB09AC09AD09AE09AF09B009B10980
:102B6000B209AB0A031DC72DAC0A031DC72DAD0A60
:102B7000031DC72DAE0A031DC72DAF0A031DC72DA8
:102B8000B00A031DC72DB10A031DC72DB20A2000CC
:102B90002B08A3002C08A4002D08A5002E08A600D1
:102BA0002F08A7003008A8003108A9003208AA00A1
:102BB00008002000B5012330860000308700473F21
:102BC000B300B31FE42DE52D072E2000A309A409AF
:102BD000A509A609A709A809A909AA09A30A031D05
:102BE000042EA40A031D042EA50A031D042EA60A02
:102BF000031D042EA70A031D042EA80A031D042E7C
:102C0000A90A031D042EAA0A2000B501B50A2B301B
:102C1000860000308700473F2000B300B31F112E0D
:102C2000122E362E2000AB09AC09AD09AE09AF0952
:102C3000B009B109B209AB0A031D312EAC0A031D5C
:102C4000312EAD0A031D312EAE0A031D312EAF0AFF
:102C5000031D312EB00A031D312EB10A031D312E82
:102C6000B20A01302000B3003308B50636308600C2
:102C70000030870008302000B30000301E00B30B86
:102C80003E2E2308240425042604270428042904AE
:102C90002A0403194C2E4D2EA92EB401B40A5C2E21
:102CA000A335A40DA50DA60DA70DA80DA90DAA0D60
:102CB0000130B3003308B407AA1F5F2E602E502ED8
:102CC000B635B70DB80DB90DBA0DBB0DBC0DBD0DA8
:102CD0002A083202031D862E29083102031D862E82
:102CE00028083002031D862E27082F02031D862E7A
:102CF00026082E02031D862E25082D02031D862E72
:102D000024082C02031D862E23082B02031C892E67
:102D10008A2E9B2E2308AB022408AC3B2508AD3B32
:102D20002608AE3B2708AF3B2808B03B2908B13B3B
:102D30002A08B23B3614AA36A90CA80CA70CA60C7C
:102D4000A50CA40CA30C0130B402031DA82EA92EBF
:102D5000602E35080319AD2EAE2ECC2EB609B7095C
:102D6000B809B909BA09BB09BC09BD09B60A031DEE
:102D7000CC2EB70A031DCC2EB80A031DCC2EB90ADF
:102D8000031DCC2EBA0A031DCC2EBB0A031DCC2E6C
:102D9000BC0A031DCC2EBD0A20003608A30037084C
:102DA000A4003808A5003908A6003A08A7003B0887
:102DB000A8003C08A9003D08AA0008002100A900BD
:102DC00020005D0886008701403FDF00413FE000B2
:102DD0005F088400600885001200253A031DF12E6B
:102DE000F22EDA2F5D08860087010130810741311C
:102DF0000318810A2200D501D6012100E301E40174
:102E0000FF30E100FF30E20020005D08860087010E
:102E1000403FDF00413FE0005F088400600885001C
:102E20001200643A0319152F162F272F5D0886000C
:102E30008701403FDF00413FE0005F0884006008F9
:102E400085001200693A031D262F272F752F5D0874
:102E5000860087010130810741310318810A5E082D
:102E60008600870101088400850102308107003F48
:102E7000DF00013FE0005F082100A00020006008A3
:102E80002100A100890D893B8909A200A300A400AB
:102E9000A500A600A70020082000BF0021002108EF
:102EA0002000C000210022082000C10021002308CA
:102EB0002000C200210024082000C30021002508B2
:102EC0002000C400210026082000C500210027089A
:102ED0002000C6002100290886318A26963120006C
:102EE0004008DE003F08DD00FF2F5D0886008701F7
:102EF000403FDF00413FE0005F088400600885003C
:102F000012006E3A031D852F862FA52F5D088600BF
:102F100087010130810741310318810A5E0886006C
:102F20008701403F84008501810A0008DF005F08B7
:102F30002100A8002808860087015F08C03F6008BC
:102F4000C13F2000DD01DE01FF2F5D088600870103
:102F5000403FDF00413FE0005F08840060088500DB
:102F60001200253A031DB52FB62FD12F5D0886001C
:102F700087010130810741310318810A2530A600FD
:102F80000030A700210029082000DF005F08A8000A
:102F90009131DB21963101302000DD000030DE0070
:102FA000FF2F5D088600870101308107413103183A
:102FB000810AA12F5D0886008701403FDF00413F65
:102FC000E0005F088400600885000008E100E2017D
:102FD0006108A6006208A700210029082000E3007C
:102FE0006308A8009131DB21963120005D0886003E
:102FF00087010130810741310318810ACB2F080076
:103000008E341934F1341934E13419342D34123436
:103010006A341034D334193407341F3493341934D8
:10302000983419349D341934A2341934A73419341E
:10303000AC341934B1341934B63419347F341E34F5
:103040002D343E34203454344534533454342034F5
:1030500043344F344E3446344F3452344D34453477
:1030600020342D34203441345434543445344E34D7
:103070005434453420344134433451345534493484
:103080005434543445344D3445344E3454340D3472
:043090000A340034CA
:1032B6000800083401300800240096140800240091
:1032C60016150800240096150800240011080800A9
:1032D6002000911508002000911108009C311D2442
:1032E6009931080023001D121D16080024009616A9
:1032F6001616080024009612161608009E31D926C6
:10330600993108001630210097000800F000700877
:103316002400910008002300E410E3010E300800A9
:1033260099315F2199310130080099315F21993136
:103336000230080099315F21993101300800993136
:10334600622199310030080099317D21993105308B
:1033560008009931792199310A300800993179218B
:103366009931093008002300E410E3010E3008000B
:103376002400160E890C890C013908009A313B226B
:1033860099312400161408009A313B229931240001
:1033960016150800640080010131890BCE2900341E
:1033A600230064109931652199310430080020000A
:1033B600A50025089E31AC26993108002300641427
:1033C6005E3599318921993103300800F0302100AA
:1033D6009E009B019C0101309D000800230064149F
:1033E60003145E0D993189219931053008002000BA
:1033F60024082200D800200023082200D700080055
:10340600200024082200DC00200023082200DB0024
:103416000800200024082200DA00200023082200E9
:10342600D9000800200024082200DE00200023081E
:103436002200DD000800200024082100E60020000C
:1034460023082100E500080001309B31D2239A3180
:103456003530890B2C2A00000800283024009500FE
:10346600960194012730920021008E150E16080051
:10347600240014193F2A402A3B2A16081F39031D27
:10348600452A462A3B2A08007030210099009801F7
:103496002200960121001A1F512A522A4D2A08009D
:1034A6007608F1007508F0007708F8007808F20051
:1034B60000309E3129269A3108002000A3002308F7
:1034C6000319662A672A6A2A22000C146C2A22002B
:1034D6000C1008002000A30023080319732A742A7D
:1034E600772A22001014792A2200101008002000E2
:1034F600A30023080319802A812A842A2200901413
:10350600862A2200901008002000A3002308031931
:103516008D2A8E2A912A22001015932A2200101134
:1035260008002000A300230803199A2A9B2A9E2A32
:1035360022008C14A02A22008C1008002000A30070
:1035460023080319A72AA82AAB2A22000C15AD2A9C
:1035560022000C1108002000A30023080319B42A36
:10356600B52AB82A22000C16BA2A22000C12080024
:103576002000A30023080319C12AC22AC52A220053
:103586008C16C72A22008C1208002000A3002308EC
:103596000319CE2ACF2AD22A22008C15D42A220039
:1035A6008C110800F3002300E41DDA2ADB2AE42A42
:1035B6007308F2007208DF007108E1007008E0008D
:1035C600E41108002000A3009A313B229A31200022
:1035D6002308240091002000911DF22AF32AEE2AE6
:1035E600911108000230F0000030F10079089A319C
:1035F600D5229A310030F500F600F7019A315322B0
:103606009A31043008000130F0000030F1007908EA
:103616009A31D5229B310030F500F600F7019A3138
:1036260053229B31023008000230F0000030F100D6
:1036360079089A31D5229B310030F500F600F70162
:103646009A3153229B31023008000130F0000030DD
:10365600F10079089A31D5229B310030F500F60049
:10366600F7019A3153229B3104300800883100203B
:103676009B319C318A249B319A3147229B31993167
:1036860085219B319931E9219B319031B0209B31C5
:1036960008002D343E3420344534523452344534F7
:1036A600553452343A342034003400340034003473
:1036B600003400340034003400342000A400993172
:1036C600C1219B31210069089A31E5229B312000F6
:1036D600240821006E049A31E5229B319931C721D5
:1036E6009B310800AF302000E90069082100AF00D7
:1036F6002E082000E50021002D082000E400AF3050
:10370600E9006908E60000309F3194279B310800E4
:1037160020003408A4003308A3009C3103249B3105
:10372600200023083307A7002408343DA8003608E4
:10373600AA003508A9009D31DA259B3108007908D1
:1037460086008701403FF000413FF1007908023EC4
:103756008600870101089A31D5229B310030F50099
:10376600F600F7019A3153229B31023008002000FF
:10377600A60021006A082000A5002508A604260840
:1037860004389B3160239B3120002608FB399B318E
:1037960060239B314230890BCE2B0032080020007B
:1037A600A8002100EA0120002808F0399B31BA233D
:1037B6009B3120002808A7000330A735FF3E031DD4
:1037C600E02B2735F0399B31BA239B3108002000C6
:1037D600A8002100EA01EA0A20002808F0399B31F6
:1037E600BA239B3120002808A7000330A735FF3EE7
:1037F600031DF92B2735F0399B31BA239B3108007D
:1038060020002408A6002308A5000D2C0130A307DC
:103816000030A43D23088600240887000108031D04
:10382600152C162C092C25082302A3002608243B58
:10383600A400080023001908F00020006C08E53EEB
:10384600860001308700700881000130F0007008A2
:10385600EC0708306C02031C312C322C332CEC01A3
:103866000130F0007008EA0708002000A400A30158
:10387600240803193F2C402C462C8F1B432C442C28
:10388600462CA301A30A2408031D4A2C4B2C512CB9
:103896008F1F4E2C4F2C512CA301A30A230808007E
:1038A6002000A400A301240803195A2C5B2C612CC8
:1038B6000F195E2C5F2C612CA301A30A2408031D9B
:1038C600652C662C6C2C0F1D692C6A2C6C2CA301A4
:1038D600A30A2308080020003708803AB800803081
:1038E6003802031D782C0130360203187B2C7C2C01
:1038F600892C20003609B8003709B900B80A03191F
:10390600B90A3808B6003908B700892C0800220021
:1039160090018F018C018D018E01083021009000ED
:103926008C01CF308D00BF308E00FF308F0023001A
:103936008F013F308D0090013C308C0024009001B7
:103946008D012100951722009D01080022000C1709
:1039560006302000A4001330A300AD30890BB12C33
:10396600A30BB12CA40BB12C003222000C13063091
:103976002000A4001330A300AD30890BC02CA30B8C
:10398600C02CA40BC02C003208002000AC01AD01F5
:10399600DB2C29082C0784002A082D3D8500000809
:1039A6009B31EA239C3101302000AC070030AD3D4D
:1039B60029082C0784002A082D3D85001200031DC6
:1039C600E52CE62CCC2C08002000A6002608A50035
:1039D600A50DA50D21001D08200025068339250605
:1039E60021009D001D140D30890BF72C00002100CD
:1039F6009D149D18FF2C002DFC2C1C082000A400F3
:103A060021001B082000A300080020302100AD0083
:103A16009830AE009B3175239D312100B101B20172
:103A26009D31B4259D3101302100B1070030B23DF2
:103A36003208803AB00080303002031D242D023057
:103A46003102031C272D282D132D080008302100D4
:103A56006C0203182F2D302D492D6D084D3E860022
:103A660001308700010823009A000130F000700839
:103A76002100ED0708306D02031C422D432D442D15
:103A8600ED010130F0007008EC074A2D1112080014
:103A96002000A400A30124080319522D532D5D2DE7
:103AA6000F1C562D572D5D2D8F185A2D5B2D5D2D14
:103AB600A301A30A2408031D612D622D6C2D0F1886
:103AC600652D662D6C2D8F1C692D6A2D6C2DA3011D
:103AD600A30A230808002000A400A3012408031950
:103AE600752D762D802D8F1D792D7A2D802D0F1A0F
:103AF6007D2D7E2D802DA301A30A2408031D842D70
:103B0600852D8F2D8F19882D892D8F2D0F1E8C2D8C
:103B16008D2D8F2DA301A30A230808002000A400E1
:103B2600A30124080319982D992DA32D8F1E9C2DD2
:103B36009D2DA32D0F1BA02DA12DA32DA301A30AFF
:103B46002408031DA72DA82DB22D8F1AAB2DAC2D41
:103B5600B22D0F1FAF2DB02DB22DA301A30A23083E
:103B660008002000A801A9019E3153269D310B3083
:103B76002000A7002630A6005D30890BC02DA60BBD
:103B8600C02DA70BC02D003201302000A807003041
:103B9600A93D2908803AA60080302602031DD52DAE
:103BA60002302802031CD82DD92DB72D080020007D
:103BB6002A08B0002908AF002808B2002708B1007B
:103BC6003208AC003108AB00B10A0319B20A2B085F
:103BD60086002C0887003008AE002F08AD00AF0A1B
:103BE6000319B00A2D0884002E0885000008C03F7E
:103BF6008908031DFF2D002EE32D08002D343E34C9
:103C060020344534523452344534553452343A34DF
:103C160020340034003400340034003400340034DE
:103C2600003400340D340A340034003400340034D7
:103C360000340034003400340D340A3400340034C7
:103C4600003400340034003400340034F4007008CA
:103C5600710403192F2E302E432E7435C83E86006C
:103C6600013087007008C03F7108C13F7208F30039
:103C76007408D43E86000130870073088100522EF6
:103C86007435C83E8600013087005D30C03F19306C
:103C9600C13F7408D43E86000130870081010800C8
:103CA6002000A401A50122000D1606302000A30065
:103CB6003030890B5C2EA30B5C2E000022000D1207
:103CC60006302000A3003030890B672EA30B672E29
:103CD600000001302000A4070030A53D2508803AE9
:103CE600A30080302302031D7A2E32302402031CE7
:103CF6007D2E7E2E562E0800230064100230FA0018
:103D06007A08E3008E2E99319D219E31AB2E993192
:103D1600A2219E31AB2E5608FA007A08F90004302B
:103D2600C83E860001308700413F8A00403F0A00B6
:103D36009E31FB00FC017C08003A0319A32E8A2E53
:103D46007B08023A0319862E013A0319862E8A2E1B
:103D560008002000A40021006C080319B32EB42E1D
:103D6600AE2E111AB72EB82EBD2E20002408230021
:103D76009A00D62E111220002408A3007D084D3E7D
:103D8600860001308700230881000130A300230844
:103D9600FD0708307D02031CD12ED22ED32EFD0145
:103DA60001302100EC0221001116080099316E2124
:103DB6009E312300641CE02EE12EEF2E9931BB21AB
:103DC6009E31003A0319E82EE92EEF2E0F3020001F
:103DD600A00020082300E200230062082000A000C3
:103DE600A101A035A10D0030200784009830213DA7
:103DF6008500013F8A00003F0A009F312000A20093
:103E060022082300E20008002300E415172F993149
:103E16009D219F31352F99316B219F310330352FED
:103E26009931A2219F31352F5408FA007A08F900FA
:103E360049088A0048080A009F31FB00FC017C08FB
:103E4600003A0319272F132F7B08013A0319132F62
:103E5600033A03190A2F013A03190A2F073A0319DD
:103E66000E2F132F08002000AC00512F2908BF3E4B
:103E76009B31D2239F31642F2908933E9B31D22355
:103E86009F31642F2908D33E9B31D2239F31642F63
:103E960029087F3E9B31D2239F31642F2C08AA002C
:103EA600AB012B08003A0319592F4B2F2A08023A67
:103EB6000319392F013A03193F2F073A0319452FE2
:103EC6004B2F080020006A0803196A2F6B2F652FF5
:103ED6006B08453E8600013087000108A3002308D1
:103EE6002100EB0020006B08E53E860001308700CC
:103EF6000108A3002308A4000130A3002308EB0750
:103F060008306B02031C882F892F8A2FEB012100B2
:103F1600911201302000EA022100911620002408A7
:103F260008002100AA00200065082100AC0020003E
:103F360064082100AB00DF01E001B72FAB302000A1
:103F4600E7006708DD006608E8006808DE00210073
:103F56002A089631DE269F3120005D082100DF0702
:103F660020005E082100E03D2B0884002C08850017
:103F76001200031DBF2FC02FA12F60082000E500EF
:103F860021005F082000E40008002100B400AF30E3
:103F96002000E90069082100B30034082000E90088
:103FA60069082100B500B601B701B801B9012E08AC
:103FB6002000E50021002D082000E400B330E900D0
:103FC6006908E600B5309F3194279F3120006508C7
:103FD6002100B200200064082100B1003608340731
:103FE6002000E9006908860002308700810121006F
:103FF6003208AE003108AD00080041347434743420
:1040060065346E34743465342034763461346C34FB
:10401600693464346134743469346F346E342034F2
:104026006C3465346434203472346F3475346734D8
:1040360065340D340A3400342D343E342034503483
:1040460052344F344734523441344D344D34413474
:10405600543449344F344E34203454344534523475
:104066004D3449344E34453445340D340A34003425
:104076002D343E342034503452344F344734523485
:1040860041344D344D344134543449344F344E3434
:10409600203445344E34203443344F34553452346E
:1040A60053340D340A3400342D343E342034453430
:1040B6005234523445345534523420345034523408
:1040C6004F344734523441344D344D3441345434F2
:1040D60049344F344E340D340A3400342D343E34D2
:1040E6002034543445345334543420344D3441341C
:1040F6004E34553445344C34203445344E34203413
:1041060043344F345534523453340D340A34003466
:1041160041345434543445344E34543445342034C4
:10412600563441344C34493444344134543449349B
:104136004F344E3420344C344534443453340D34E7
:104146000A3400342D343E34203445344634463463
:104156004134433445344D3445344E34543420349C
:1041660045344E34203443344F345534523453346A
:104176000D340A3400342D343E342034453446346C
:1041860046344134433445344D3445344E34543446
:1041960020345434453452344D3449344E34453445
:1041A6000D340A3400342D343E3420344634493438
:1041B6004E342034543445345334543420344D343E
:1041C60041344E34553445344C340D340A340034BD
:1041D60045345234523445345534523420345034F4
:1041E60052344F344734523441344D344D344134D3
:1041F600543449344F344E340034503452344534F8
:10420600533453344534523420344F344B342034F1
:104216004F345534203445345234523445345534B1
:104226005234003441345434543445344E345434C6
:1042360045342034413443345134553449345434AC
:10424600543445344D3445344E34543400342D34CE
:104256003E342034413470347034753479346534E6
:104266007234203473347534723420344F344B3402
:104276000D340A3400345434453453345434203421
:104286005234313420344F344634463420342D34BD
:1042960020345234323420344F344E3400345434C3
:1042A60045345334543420345234323420344F3469
:1042B6004634463420342D342034523433342034BA
:1042C6004F344E3400342D343E3420345434453487
:1042D60053345434203441344334513455344934FE
:1042E6005434543445340D340A340034543445348B
:1042F60053345434203443344134523454344534E2
:104306002034443439343234353445344434343446
:1043160000345634453452344934463449344534ED
:10432600523420345034313420344534543420341B
:1043360050343234003452344534533455344C34CA
:10434600543441345434203443344F344E34463498
:10435600493452344D34453400345434453453349E
:10436600543420344E344F344E34203443344F3496
:104376004E3446344F3452344D344534003446348A
:1043860049344E342034503452344F344734523446
:1043960041344D344D344134543449344F344E3421
:1043A600003450344F3453344934543449344F3440
:1043B6004E344E344534523420344334413452342E
:1043C600543445340034543445345334543420344E
:1043D60033342034523445344C3441344934533424
:1043E60020344F3446344634003443344C3441345C
:1043F60056344934453452342034453443344C34ED
:1044060041344934523445343F3400345034523404
:104416004534533453344534523420344F344B34BA
:1044260020342F3420344E344F344B34003454343B
:1044360045345334543420344C34453444342034D5
:1044460043344C34413456344934453452340034C0
:1044560043344C3441345634493445345234203490
:1044660045345434453449344E3454343F3400349E
:10447600543445345334543420344C344534443461
:1044860053342034433441345234543445340034A4
:10449600453452345234453455345234203456342B
:1044A60041344C344934443445344534003446347C
:1044B60049344E342034453446344634413443344A
:1044C60045344D3445344E34543400345434453434
:1044D6005334543420344C34453444342034523428
:1044E6004F3455344734453400345434453453340A
:1044F600543420344C344534443420345634453412
:1045060052345434453400345434453453345434DA
:1045160020344C3445344434203442344C3445340D
:104526005534453400344D344F34443455344C34CA
:10453600453420344534533443344C3441345634B2
:1045460045340034543445345334543420344934D7
:1045560032344334203453344C34413456344534A5
:1045660000345434453453345434203442344C34B7
:104576005534453454344F344F345434483400346D
:10458600413450345034553459344534523420343F
:1045960053345534523420344F344B3400342D3494
:1045A6003E342034543445345334543420344F3458
:1045B600463446340D340A3400344D344F344434D2
:1045C60055344C34453420344D3441344934543414
:1045D6005234453400345234453454344934523418
:1045E60045345234203443344134523454344534FF
:1045F60000344C34453444345334203441344C3440
:104606004C3455344D3445344534533400342D340C
:104616003E342034543445345334543420344F34E7
:104626004E340D340A3400342D343E3420345434A0
:104636004534533454343A34313430343A343134E2
:1046460000342D343E3420345434453453345434F9
:104656003A34313432343A34313400342D343E3441
:10466600203454344534533454343A3431343334A6
:104676003A34313400342D343E3420345434453405
:10468600533454343A34313434343A3431340034D3
:104696002D343E34203454344534533454343A346F
:1046A600313435343A34313400342D343E34203408
:1046B60054344534533454343A34313436343A3439
:1046C600313400342D343E3420345434453453349C
:1046D60054343A34313437343A34313400342D34A6
:1046E6003E34203454344534533454343A3431341B
:1046F60038343A3431340034543445345334543431
:10470600203448344F3452344C344F3447344534D3
:1047160000342D343E342034543445345334543428
:104726003A3431343A34313400342D343E34203482
:1047360054344534533454343A3432343A343134BC
:1047460000342D343E3420345434453453345434F8
:104756003A3433343A34313400342D343E34203450
:1047660054344534533454343A3434343A3431348A
:1047760000342D343E3420345434453453345434C8
:104786003A3435343A34313400342D343E3420341E
:1047960054344534533454343A3436343A34313458
:1047A60000342D343E342034543445345334543498
:1047B6003A3437343A34313400342D343E342034EC
:1047C60054344534533454343A3438343A34313426
:1047D60000342D343E342034543445345334543468
:1047E6003A3439343A343134003454344534533459
:1047F60054342034533446344C34413453344834DE
:104806000034463449344E3420344434453420345C
:104816005434453453345434003456344F344934C4
:10482600523420344134503450344C3449340034FA
:1048360054344534533454342034523431342034CF
:104846004F344E34003445345434413450344534B6
:104856002034313430340034453454344134503407
:1048660045342034313432340034543445345334EE
:1048760054342034423450343234003445345434C1
:1048860041345034453420343134333400344534E3
:1048960054344134503445342034313434340034C3
:1048A600453454344134503445342034313435346D
:1048B6000034453454344134503445342034313492
:1048C600363400344534543441345034453420347D
:1048D600313437340034453454344134503445345B
:1048E6002034313438340034543445345334543459
:1048F60020344F344B34003445345434413450342E
:10490600453420343134003454344534533454342B
:104916002034503431340034453454344134503426
:10492600453420343234003454344534533454340A
:104936002034503432340034453454344134503405
:1049460045342034333400344534543441345034FF
:1049560045342034343400344534543441345034EE
:1049660045342034353400344534543441345034DD
:1049760045342034363400344534543441345034CC
:1049860045342034373400344534543441345034BB
:1049960045342034383400344534543441345034AA
:0E49A600453420343934003425346434003470
:020000040001F9
:08000000FF3FFF3FFF3FFF3F00
:04000E00E43FFF3F8D
:00000001FF
