:1000000080314A28053008007E1480310B1F0928F2
:100010000A2848282100111E0E280F281B2820001E
:10002000111E132814281B28210066088A00650861
:100030000A00803148282100911E1F2820282C28E2
:100040002000911E242825282C2822005E088A00E2
:100050005D080A00803148282100921D302831288F
:100060003D282000921D352836283D2821006808AB
:100070008A0067080A00803148282100911D412824
:10008000422848282000911D46284728482836281D
:100090007E10090080314C282100903100208031F1
:1000A000EE00973084009D308500A030860001303E
:1000B00087002830883100208031EC308400873080
:1000C00085004030860002308700143088310020DF
:1000D0008031FD012000EA01EB01EC01DF308400FA
:1000E000003085000F30993178218031453084000F
:1000F000013085001C30993178218031C83084006E
:1001000001308500253099317821803120308400FC
:100110000230850020309931782180317E10200016
:100120008A31C82AC0302000AE00A430AF00893028
:10013000B000A230B1003A30B200A030B3003A3083
:10014000B400A030B50091312E21803101309A31B8
:100150003F22803106302200C2001330C100AD3092
:10016000890BB028C10BB028C20BB0280032003078
:100170009A313F22803124005F080319C028C1282A
:10018000FD2863089431572480312200C1004108C2
:100190002400E4006408031DCE28CF28F528E501DB
:1001A000C0302100B000A430B1006530B200023090
:1001B000B3006430B4000230B50093314223803183
:1001C00063302100B8000230B9006530BA00023057
:1001D000BB006430BC000230BD006230BE000230A3
:1001E000BF00923128228031FD28CD302100AD00A2
:1001F000A330AE009B310B23803124006508031926
:10020000022903297129C8302000AE00A430AF00B4
:100210002C30B000A430B1003A30B200A030B300AE
:100220003A30B400A030B50091312E218031013038
:100230009A313F22803115302200C2004B30C1007C
:10024000BE30890B2129C10B2129C20B21290000B5
:1002500000309A313F22803115302200C2004B30ED
:10026000C100BE30890B3229C10B3229C20B3229A1
:10027000000001309C31E1248031003A031941290A
:1002800042294B29D9302100AD00A330AE009B316B
:100290000B23803171292400E501C8302100B00012
:1002A000A430B1006530B2000230B3006430B40055
:1002B0000230B50093314223803163302100B80011
:1002C0000230B9006530BA000230BB006430BC00B7
:1002D0000230BD006230BE000230BF0092312822E1
:1002E000803124006508031976297729EE29D0305A
:1002F0002000AE00A430AF003E30B000A130B1000D
:100300003A30B200A030B3003A30B400A030B500AB
:1003100091312E21803101309A313F2280311530C8
:100320002200C2004B30C100BE30890B9529C10BA1
:100330009529C20B9529000000309A313F22803167
:1003400015302200C2004B30C100BE30890BA629F7
:10035000C10BA629C20BA629000000309C31E12464
:100360008031003A0319B529B629C82901309D31D9
:1003700004258031003A0319BE29BF29C829E53078
:100380002100AD00A330AE009B310B238031EE295C
:100390002400E501D0302100B000A430B100653068
:1003A000B2000230B3006430B4000230B5009331C3
:1003B0004223803163302100B8000230B90065303B
:1003C000BA000230BB006430BC000230BD006230B5
:1003D000BE000230BF00923128228031240065081F
:1003E0000319F329F4296B2AD8302000AE00A43079
:1003F000AF005230B000A130B1003A30B200A030AE
:10040000B3003A30B400A030B50091312E218031D4
:1004100001309A313F22803115302200C2004B302A
:10042000C100BE30890B122AC10B122AC20B122A3C
:10043000000000309A313F22803115302200C20086
:100440004B30C100BE30890B232AC10B232AC20BBB
:10045000232A000000309D3104258031003A031921
:10046000322A332A452A01309D3127258031003A2E
:1004700003193B2A3C2A452AF1302100AD00A33064
:10048000AE009B310B2380316B2A2400E501D8306C
:100490002100B000A430B1006530B2000230B300DA
:1004A0006430B4000230B5009331422380316330B0
:1004B0002100B8000230B9006530BA000230BB003C
:1004C0006430BC000230BD006230BE000230BF00AC
:1004D000923128228031240065080319702A712A7C
:1004E000182BE0302000AE00A430AF002B30B0005D
:1004F000A230B100F830B200A130B3003A30B400FD
:10050000A030B50091312E21803101309A313F2247
:10051000803106302200C2001330C100AD30890B9B
:100520008F2AC10B8F2AC20B8F2A003200309A31DA
:100530003F2280310B302200C2002630C1005D30E6
:10054000890BA02AC10BA02AC20BA02A00320C30B2
:100550009C317D248031200024082400E10020000B
:1005600023082400E000E8302100AD00A430AE00F4
:10057000240061082100B000240060082100AF00C1
:1005800058309F318727803121002E082400D50064
:1005900021002D082400D4006108803A2200C10007
:1005A00083304102031DD72A203024006002031843
:1005B000DA2ADB2AE62A22008C17FD302100AD0062
:1005C000A330AE009B310B2380310C2BE030210097
:1005D000B000A430B1006530B2000230B300643026
:1005E000B4000230B50093314223803122008C13D5
:1005F00063302100B8000230B9006530BA00023023
:10060000BB006430BC000230BD006230BE0002306E
:10061000BF0092312822803129302200C20096305A
:10062000C1007F30890B122BC10B122BC20B122B76
:100630002400650803191D2B1E2BD92B37302000F1
:10064000AE00A430AF002B30B000A230B1003C307F
:10065000B200A230B3003A30B400A030B5009131FE
:100660002E21803101309A313F2280310630220024
:10067000C2001330C100AD30890B3C2BC10B3C2BA9
:10068000C20B3C2B003200309A313F2280310B30BC
:100690002200C2002630C1005D30890B4D2BC10BFA
:1006A0004D2BC20B4D2B00320C309C317D24803100
:1006B000200024082400E100200023082400E0009A
:1006C000E8302100AD00A430AE0024006108210014
:1006D000B000240060082100AF0058309F31872708
:1006E000803121002E082400D70021002D0824008D
:1006F000D6006108803A2200C10082304102031D09
:10070000842B8A30240060020318872B882B932BBC
:1007100022008C1328302100AD00A330AE009B31A5
:100720000B238031CD2B37302100B000A430B10035
:100730006530B2000230B3006430B4000230B5005E
:1007400093314223803137302000AE00A430AF0017
:100750002B30B000A230B1005830B2000230B300EC
:100760003A30B400A030B50091312E218031220002
:100770008C1763302100B8000230B9006530BA0030
:100780000230BB006430BC000230BD006230BE00ED
:100790000230BF0092312822803129302200C2006D
:1007A0009630C1007F30890BD32BC10BD32BC20BEA
:1007B000D32B240065080319DE2BDF2BAB2C403034
:1007C0002000AE00A430AF000930B000A430B1006A
:1007D0003A30B200A030B3003A30B400A030B500D7
:1007E00091312E2180310B302200C2002630C10011
:1007F0005D30890BF92BC10BF92BC20BF92B0032A1
:1008000001309A313F22803106302200C20013307D
:10081000C100AD30890B0A2CC10B0A2CC20B0A2C6B
:10082000003200309A313F2280313D302200C20038
:10083000E130C1003F30890B1B2CC10B1B2CC20BBC
:100840001B2C003201309A313F22803106302200C9
:10085000C2001330C100AD30890B2C2CC10B2C2CE5
:10086000C20B2C2C003200309A313F2280311030E4
:100870002200C2003930C1000D30890B3D2CC10B64
:100880003D2CC20B3D2C003201309C31E1248031E3
:10089000003A03194C2C4D2C682C01309D31042555
:1008A0008031003A0319552C562C682C00309D31AC
:1008B00027258031003A03195E2C5F2C682C3530D7
:1008C0002100AD00A330AE009B310B238031962C6C
:1008D0002400E50100309A313F22803100309A3106
:1008E0004C22803140302100B000A430B10065308E
:1008F000B2000230B3006430B4000230B50093316E
:100900004223803163302100B8000230B9006530E5
:10091000BA000230BB006430BC000230BD0062305F
:10092000BE000230BF0092312822803115302200F3
:10093000C2004B30C100BE30890B9C2CC10B9C2CDB
:10094000C20B9C2C000000309A313F2280310030D5
:100950009A314C228031240065080319B02CB12C47
:100960001F2D52302000AE00A430AF004C30B0003C
:10097000A230B1000D30B200A330B3000930B40092
:10098000A230B50091312E21803101309A313F22C1
:10099000803106302200C2001330C100AD30890B17
:1009A000CF2CC10BCF2CC20BCF2C003200309A3190
:1009B0003F2280318B302100AD00A030AE009B3152
:1009C0000B238031240063089431572480312200A6
:1009D000C10041082400E4006408031DF02CF12C40
:1009E000172DE50152302100B000A430B100653070
:1009F000B2000230B3006430B4000230B50093316D
:100A00004223803163302100B8000230B9006530E4
:100A1000BA000230BB006430BC000230BD0062305E
:100A2000BE000230BF009231282280311F2D42309B
:100A30002100AD00A330AE009B310B238031240098
:100A400065080319242D252DA52D5B302000AE004F
:100A5000A430AF004930B000A430B1003A30B20049
:100A6000A030B3003A30B400A030B50091312E214F
:100A7000803101309A314C22803106302200C20090
:100A80001330C100AD30890B432DC10B432DC20B78
:100A9000432D003200309A314C2280310B3022003D
:100AA000C2002630C1005D30890B542DC10B542D7E
:100AB000C20B542D003201309C31E1248031003AC8
:100AC0000319632D642D7F2D01309D310425803164
:100AD000003A03196C2D6D2D7F2D01309D31272596
:100AE0008031003A0319752D762D7F2D4F3021006E
:100AF000AD00A330AE009B310B238031A52D240027
:100B0000E5015B302100B000A430B1006530B200D7
:100B10000230B3006430B4000230B5009331422398
:100B2000803163302100B8000230B9006530BA006E
:100B30000230BB006430BC000230BD006230BE0039
:100B40000230BF0092312822803124006508031949
:100B5000AA2DAB2D2B2E64302000AE00A430AF00A8
:100B60009030B000A330B1003A30B200A030B300F2
:100B70003A30B400A030B50091312E2180310130DF
:100B800090310120803106302200C2001330C100B4
:100B9000AD30890BC92DC10BC92DC20BC92D003237
:100BA00000309031012080310B302200C20026300D
:100BB000C1005D30890BDA2DC10BDA2DC20BDA2DA5
:100BC000003200309C31E1248031003A0319E92DD4
:100BD000EA2D052E00309D3104258031003A03199D
:100BE000F22DF32D052E00309D3127258031003A5E
:100BF0000319FB2DFC2D052E5C302100AD00A33028
:100C0000AE009B310B2380312B2E2400E501643094
:100C10002100B000A430B1006530B2000230B30052
:100C20006430B4000230B500933142238031633028
:100C30002100B8000230B9006530BA000230BB00B4
:100C40006430BC000230BD006230BE000230BF0024
:100C5000923128228031240065080319302E312E6C
:100C6000AB2E6D302000AE00A430AF009830B00045
:100C7000A430B1003A30B200A030B3003A30B40032
:100C8000A030B50091312E21803101309A315922A6
:100C9000803119302200C2005A30C100B130890BB6
:100CA0004F2EC10B4F2EC20B4F2E003200309A3107
:100CB000592280310B302200C2002630C1005D3045
:100CC000890B602EC10B602EC20B602E00320130EA
:100CD0009C31E1248031003A03196F2E702E8B2E47
:100CE00001309D3104258031003A0319782E792E88
:100CF0008B2E01309D3127258031003A0319812E3A
:100D0000822E8B2E69302100AD00A330AE009B31C6
:100D10000B238031AB2E6D302100D700A430D800DA
:100D200065302200C10041082100D9006430220052
:100D3000C20042082100DA0063302200C3004308E9
:100D40002100DB0062302200C40044082100DC00E6
:100D5000883106208031240065080319B02EB12E99
:100D6000312F76302000AE00A430AF00A830B000A4
:100D7000A430B1003A30B200A030B3003A30B40031
:100D8000A030B50091312E21803101309A31662298
:100D9000803119302200C2005A30C100B130890BB5
:100DA000CF2EC10BCF2EC20BCF2E003200309A3186
:100DB000662280310B302200C2002630C1005D3037
:100DC000890BE02EC10BE02EC20BE02E003200306A
:100DD0009C31E1248031003A0319EF2EF02E0B2FC5
:100DE00000309D3104258031003A0319F82EF92E88
:100DF0000B2F00309D3127258031003A0319012F38
:100E0000022F0B2F76302100AD00A330AE009B31B6
:100E10000B238031312F2400E50176302100B00012
:100E2000A430B1006530B2000230B3006430B400C9
:100E30000230B50093314223803163302100B80085
:100E40000230B9006530BA000230BB006430BC002B
:100E50000230BD006230BE000230BF009231282255
:100E60008031240065080319362F372F972F7F30E4
:100E70002000AE00A430AF00B630B000A230B10008
:100E80002130B200A430B3000930B400A230B50064
:100E900091312E2180319C313F2480312400630820
:100EA0009431572480312200C10041082400E4001D
:100EB0006408031D5C2F5D2F8F2FE5017F3021001B
:100EC000B000A430B1006530B2000230B30064302D
:100ED000B4000230B50093314223803163302100E9
:100EE000B8000230B9006530BA000230BB0064308F
:100EF000BC000230BD006230BE000230BF00923143
:100F00002822803129302200C2009630C1007F3073
:100F1000890B882FC10B882FC20B882F972F833006
:100F20002100AD00A330AE009B310B2380312400A3
:100F3000650803199C2F9E2F8B31382B153020000C
:100F4000AE00A430AF00B930B000A130B100FF3026
:100F5000B200A230B3001530B400A130B500913119
:100F60002E21803101309A311822803100309A319F
:100F70000B2280319C319E24803163302100B000EF
:100F80000230B1006530B2000230B3009231DB2292
:100F9000803165302100B0000230B1006430B20011
:100FA0000230B3006330B4000230B5006230B600E6
:100FB0000230B7009031E420803129302200C20095
:100FC0009630C1007F30890BE32FC10BE32FC20B9A
:100FD000E32F9C2F80314A282D343E342034453471
:100FE000523452344534553452343A342034003477
:100FF0000034003400340034003400340034003451
:10100000FE0012001E00FE0B012800344030860056
:10101000023087002A30840001308500143021001E
:10102000DD0016001A00DD0B1128B43086000130F7
:10103000870020308400013085000A30DD00160072
:101040001A00DD0B1F2801309A312522883101302A
:101050009A313222883100309A31182288312100A9
:1010600058082000AF00210057082000AE00B03023
:10107000B000A130B1008C30B200A130B30000301C
:10108000B400A130B50091312E2188312A302000E2
:10109000B3000130B400210058082000B600210040
:1010A00057082000B5009B312123883120003408E7
:1010B0002200BF00200033082200BE003F082000AD
:1010C000B40022003E082000B3002030B5000130FB
:1010D000B6009B3121238831200034082100AE0066
:1010E000200033082100AD009B310B238831903163
:1010F0009C20883121005B088600023087000108AF
:101100009431572488312100DD005D082200C000A1
:101110000B302100DE002630DD005D30890B8E288B
:10112000DD0B8E28DE0B8E280032220040080319CA
:101130009A289B28CF282100590886000230870072
:1011400081015A0886000230870081016D3020003D
:10115000AE00A430AF00B530B000A130B1009E3079
:10116000B200A130B3001530B400A130B500913108
:101170002E218831DB302100B8000030B900D93091
:10118000BA000030BB00DA30BC000030BD00DC30FB
:10119000BE000030BF0092312822883157296D30BF
:1011A0002000AE00A430AF009830B000A430B100F1
:1011B0003A30B200A030B3003A30B400A030B500ED
:1011C00091312E21883100309A3125228831013029
:1011D0009A313222883100309A3118228831013018
:1011E0009A315922883119302100DE005A30DD0051
:1011F000B130890BF928DD0BF928DE0BF928003214
:1012000000309A315922883115302100DE004B30F0
:10121000DD00BE30890B0A29DD0B0A29DE0B0A2905
:10122000000001309C31E1248831003A031919296A
:101230001A29412901309D3104258831003A0319CA
:1012400022292329412901309D3127258831003A5F
:1012500003192B292C2941296D302000AE00A43020
:10126000AF009830B000A430B1005C30B200A230C2
:10127000B3008830B400A430B50091312E218831FC
:1012800057292100590886000230870081016D30FE
:10129000B000A430B100D930B2000030B300DA3071
:1012A000B4000030B500933142238831BA280800D9
:1012B0002000CA003F08D3004008D4004108D500F0
:1012C0004208D6004308D7004408D8004508D90092
:1012D0004608DA005330860000308700473FC700D9
:1012E000C71B732975290130762900302000C800FA
:1012F000C9014808D1004908D20051085204031915
:1013000082298329A129D309D409D509D609D70966
:10131000D809D909DA09D30A031DA129D40A031D62
:10132000A129D50A031DA129D60A031DA129D70A7F
:10133000031DA129D80A031DA129D90A031DA1292A
:10134000DA0A2100E21BA529A629AA29FD30E30516
:10135000FF30E4056208803A2000C7008030470271
:10136000031DB5290130210061020318B829B929EC
:10137000BF2901302000CD000030CE00C729210058
:1013800062082000CE00210061082000CD0022006C
:1013900056082000D000220055082000CF00510838
:1013A0005204031DD429D529DA292100631DD92926
:1013B000DA29DF29FF302000CF07FF30D03D1F3072
:1013C0002000DB000030DC002400BF01502AFF3089
:1013D0002000DB07FF30DC3D0A30A300A401A5019B
:1013E000A601A701A801A901AA015308AB0054084E
:1013F000AC005508AD005608AE005708AF005808BD
:10140000B0005908B1005A08B2009431EC24893177
:1014100020002408B7002308B6009C310424893139
:1014200020003608303EC7005B08203E86000230B0
:10143000870047088100FF30CD07FF30CE3DFF30E9
:10144000CF07FF30D03D0A30A300A401A501A601BB
:10145000A701A801A901AA015308AB005408AC00D8
:101460005508AD005608AE005708AF005808B00048
:101470005908B1005A08B2009531D92589312000A8
:101480002308D3002408D4002508D5002608D60058
:101490002708D7002808D8002908D9002A08DA0028
:1014A00020005C08803AC70080304702031D5A2A9A
:1014B00001305B02031C5D2A5E2A8B2A2000530840
:1014C0005404550456045704580459045A04031D7F
:1014D0006A2A6B2AE7294E08803AC7008030470203
:1014E000031D742A01304D020318772A782AE72950
:1014F00020005008803AC70080304702031D822A2E
:1015000001304F02031C852A862A8B2A2100E3180A
:101510008A2A8B2AE729200051085204031D912AA8
:10152000922A972A2100631D962A972AB42AFF300F
:101530002000DB07FF30DC3D51085204031DA12AC7
:10154000A22AA72A2B30CB000030CC00AB2A2D30AA
:10155000CB000030CC004B08C7005B08203E860063
:10156000023087004708810020005B08203EC7004A
:101570004708B6005008B8004F08B7004A08923133
:101580007F22893120003708C0003608BF000800DC
:101590009A31A2228A318B170B172400E501E4014E
:1015A000E301E201E20ADD01DD0A20008E1AD92AF8
:1015B000DA2AE02A2400DD019A3173228A312B2BAA
:1015C0009931DB218A3146309331CB238A3179300E
:1015D0002000AE00A130AF00A730B000A230B100B3
:1015E000D430B200A130B300C530B400A230B50091
:1015F00091312E218A3103302200C2000830C1000F
:101600007730890B012BC10B012BC20B012B4E3004
:101610009331CB238A3179302000AE00A130AF0066
:10162000F130B000A230B100D430B200A130B3002C
:10163000C530B400A230B50091312E218A3103307B
:101640002200C2000830C1007730890B252BC10B66
:10165000252BC20B252B15302200C2004B30C100B8
:10166000BE30890B312BC10B312BC20B312B00004B
:101670004E309331CB238A3179302000AE00A13037
:10168000AF00F130B000A230B100D430B200A130D0
:10169000B300C530B400A230B50091312E218A319B
:1016A00003302200C2000830C1007730890B562B6E
:1016B000C10B562BC20B562B4E309331CB238A31A4
:1016C00079302000AE00A130AF00F130B000A23080
:1016D000B100D430B200A130B300C530B400A230A4
:1016E000B50091312E218A3103302200C20008302A
:1016F000C1007730890B7A2BC10B7A2BC20B7A2B66
:1017000022008C1320000E1C862B872B8B2B240091
:10171000DF01DF0A8D2B2400DF0120008E18912BC2
:10172000922B932BA42BA42B65302200C1004108DF
:101730002100B00062302200C20042082100B10046
:1017400063308C3140248A31240065080319A92BA9
:10175000AA2B942BE2019D314A258A312400E50110
:10176000E50A00309A3118228A3100309A31252258
:101770008A3101309A3132228A3103302200C2008C
:101780000830C1007730890BC32BC10BC32BC20BB0
:10179000C32B46309331CB238A3179302000AE0001
:1017A000A130AF00D430B000A230B100D430B200CC
:1017B000A130B300C530B400A230B50091312E2164
:1017C0008A3103302200C2000830C1007730890B13
:1017D000E72BC10BE72BC20BE72B4E309331CB230A
:1017E0008A3190302000AE00A430AF001A30B00033
:1017F000A230B1003A30B200A030B3003A30B400A9
:10180000A030B50091312E218A312400161416180B
:101810000A2C0B2C072C323091001418102C112C90
:101820000D2C1419142C152C112C1930910014188E
:101830001A2C1B2C172C14191E2C1F2C1B2C961425
:101840009618232C242C202C333091001418292C8A
:101850002A2C262C14192D2C2E2C2A2C9615141CCF
:10186000322C332C2F2C11082200C10041082400F7
:10187000DE0096161616161A3F2C8D31F72D3B2CCE
:101880002100B600B501F02D20000F19482C492C7D
:10189000642C71302100AD00A030AE009B310B23D1
:1018A0008C312100B501B50A360886000230870068
:1018B00081013108860002308700810130088600EE
:1018C000023087008101810A20006A080319692C0F
:1018D0006A2CF02D9F3124278C312100B200320870
:1018E000B400D12D01001B302100AD00A330AE00AB
:1018F0009B310B238C312100360886000230870093
:101900008101810A30088600023087008101810A46
:101910003108860002308700810102302100B300C7
:101920000430B200BA30890B932CB20B932CB30B5A
:10193000932C00002100B501B50AF02D5730AD0001
:10194000A030AE009B310B238C3179302000AE00EB
:10195000A130AF003A30B000A030B100EB30B2009F
:10196000A030B3003A30B400A030B50091312E2140
:101970008C31210036088600023087008101810AFF
:1019800002302100B3000430B200BA30890BC62CFB
:10199000B20BC62CB30BC62C00002100B501B50A52
:1019A0003008860002308700810122008C13F02D60
:1019B0003B30AD00A030AE009B310B238C31793031
:1019C0002000AE00A130AF003A30B000A030B1002E
:1019D000C630B200A130B3003A30B400A030B50038
:1019E00091312E218C31210036088600023087008B
:1019F0008101810A300886000230870081013108A8
:101A0000860002308700810102302100B3000430DB
:101A1000B200BA30890B0A2DB20B0A2DB30B0A2D76
:101A200000002100B501B50A22008C17F02D1F30EF
:101A3000AD00A030AE009B310B238C3179302000FB
:101A4000AE00A130AF003A30B000A030B100C230DB
:101A5000B200A130B3003A30B400A030B5009131EB
:101A60002E218C312100360886000230870081014A
:101A7000810A02302100B3000430B200BA30890B71
:101A80003F2DB20B3F2DB30B3F2D00002100B501C0
:101A9000B50A3008860002308700810122008C13CD
:101AA000F02DA530AD00A030AE009B310B238C3162
:101AB00079302000AE00A130AF003A30B000A03045
:101AC000B1006F30B200A230B3003A30B400A030A1
:101AD000B50091312E218C3121003608860002306C
:101AE00087008101810A3008860002308700810169
:101AF00031088600023087008101810A023021000E
:101B0000B3000430B200BA30890B842DB20B842D9F
:101B1000B30B842D00002100B501B50A22008C17FB
:101B2000F02DBE30AD00A030AE009B310B238C31C8
:101B300079302000AE00A130AF003A30B000A030C4
:101B4000B1006B30B200A230B3003A30B400A03024
:101B5000B50091312E218C312100360886000230EB
:101B600087008101810A30088600023087008101E8
:101B700031088600023087008101810A023021008D
:101B8000B3000430B200BA30890BC42DB20BC42D9F
:101B9000B30BC42D00002100B501B50A22008C133F
:101BA000F02D3408B200B3013308003A0319D92DDF
:101BB000F02D3208303A0319722C013A0319732CB4
:101BC000043A0319912D033A03199E2C013A031983
:101BD000D82C0F3A0319512D013A0319172DF02D66
:101BE000210035080319F52DF62D442C0800161593
:101BF0001619FB2DFC2DF82D03302200C2000830F1
:101C0000C1007730890B022EC10B022EC20B022EAF
:101C100001309A313F228D3101309A314C228D3181
:101C200015302200C2004B30C100BE30890B162E89
:101C3000C10B162EC20B162E000001309A310B225A
:101C40008D3129302200C2009630C1007F30890BCF
:101C5000272EC10B272EC20B272E01309C31E124E9
:101C60008D31003A0319352E362E512E01309D311B
:101C700004258D31003A03193E2E3F2E512E01309E
:101C80009D3127258D31003A0319472E482E512EBC
:101C90009D302100AD00A330AE009B310B238D3170
:101CA0007F2E2400E50100309A313F228D31003033
:101CB0009A314C228D3190302100B000A430B10017
:101CC0006530B2000230B3006430B4000230B500B9
:101CD000933142238D3163302100B8000230B900C6
:101CE0006530BA000230BB006430BC000230BD0079
:101CF0006230BE000230BF00923128228D31153093
:101D00002200C2004B30C100BE30890B852EC10BB2
:101D1000852EC20B852E000000309A313F228D3176
:101D200000309A314C228D31240065080319992E18
:101D30009A2E0D2FA0302000AE00A430AF00E63068
:101D4000B000A130B1003A30B200A030B3003A3058
:101D5000B400A030B50091312E218D3100309A3180
:101D60003F228D3100309A314C228D310B302200D0
:101D7000C2002630C1005D30890BBC2EC10BBC2EC9
:101D8000C20BBC2E003201309C31E1248D31003A6F
:101D9000031DCB2ECC2EE72E01309D3104258D3135
:101DA000003A031DD42ED52EE72E01309D31272574
:101DB0008D31003A031DDD2EDE2EE72EA9302100E5
:101DC000AD00A330AE009B310B238D310D2F2400CD
:101DD000E501A0302100B000A430B1006530B200B0
:101DE0000230B3006430B4000230B50093314223B6
:101DF0008D3163302100B8000230B9006530BA007F
:101E00000230BB006430BC000230BD006230BE0056
:101E10000230BF00923128228D3124006508031959
:101E2000122F132F872FB0302000AE00A430AF0048
:101E30007A30B000A230B1003A30B200A030B30026
:101E40003A30B400A030B50091312E218D310130EF
:101E50009A313F228D3106302200C2001330C1007A
:101E6000AD30890B312FC10B312FC20B312F003216
:101E700000309A313F228D3124005F080319412F31
:101E8000422F872F00302100AD00A030AE009B31E3
:101E90000B238D3124006308943157248D312200A7
:101EA000C10041082400E4006408031D582F592F85
:101EB0007F2FE501B0302100B000A430B1006530C3
:101EC000B2000230B3006430B4000230B500933188
:101ED00042238D3163302100B8000230B9006530F3
:101EE000BA000230BB006430BC000230BD0062307A
:101EF000BE000230BF00923128228D31872FB530CD
:101F00002100AD00A330AE009B310B238D312400A6
:101F1000650803198C2F8D2FF82FB8302000AE00E4
:101F2000A430AF009830B000A230B1003A30B20017
:101F3000A030B3003A30B400A030B50091312E216A
:101F40008D3101309A313F228D3106302200C2009E
:101F50001330C100AD30890BAB2FC10BAB2FC20BBF
:101F6000AB2F003200309A313F228D3124005F08C0
:101F70000319BB2FBC2FF82F6308943157248D31E0
:101F80002200C10041082400E4006408031DC92F99
:101F9000CA2FF02FE501B8302100B000A430B10005
:101FA0006530B2000230B3006430B4000230B500D6
:101FB000933142238D3163302100B8000230B900E3
:101FC0006530BA000230BB006430BC000230BD0096
:101FD0006230BE000230BF00923128228D31F82FCE
:101FE000C1302100AD00A330AE009B310B238D31F9
:101FF000240065080319FE2F803192288031FD28C6
:1020000008342000A30023080319072808280B28F8
:1020100022008C150D2822008C1108009931132103
:102020009031FA0023005F08860087017A0881005A
:102030000130FA007A08DF070130E0020030E13BAE
:10204000600861040319252826282B2899312821A6
:10205000903105305328E415352899315C219031B1
:10206000532899315721903153285408FA007A089F
:10207000F90049088A0048080A009031FB00FC0179
:102080007C08003A0319452831287B08013A0319D6
:102090003128033A03192D28013A03192D28073A4C
:1020A000031931283128080021009112BF30200087
:1020B000A3001F30A4009931C021903121001112DA
:1020C000BF302000A3001C30A4009931C9219031F9
:1020D000083023009F0090309D0024309E00403047
:1020E0009B0003309C0007302000A3001930A4009F
:1020F0009931AE21903120302000A3001930A40086
:102100009931B72190311C302000A3001930A40070
:102110009931A52190312100EB01FD01ED0108303D
:102120002000A50025082100EC002000EC01EB01B7
:10213000EA012100911608002000A801A901200051
:10214000AA01AB019E31122690310B302000A7006E
:102150002630A6005D30890BAB28A60BAB28A70B59
:10216000AB28003201302000AA070030AB3D2B081D
:10217000803AA60080302602031DC02804302A02BF
:10218000031CC328C428A2280B302000A700263037
:10219000A6005D30890BCA28A60BCA28A70BCA283F
:1021A000003201302000A8070030A93D2908803AFC
:1021B000A60080302602031DDF2804302802031CFD
:1021C000E228E3289F28080021003408860035080B
:1021D00087000108031DED28EE28F528D630AD0054
:1021E000A030AE009B310B239031210030088600D7
:1021F0003108870081013208860033088700810199
:1022000034088600350887008101360886003708C3
:1022100087000130810000309A311822903100305F
:102220009A312522903100309A313222903100309B
:102230009A310B22903100309A313F229031003098
:102240009A314C22903100309A315922903100302D
:102250009A316622903122008C1308009931D221E4
:10226000913106309B316823913102302000B70054
:102270000430B600BA30890B3B29B60B3B29B70BAB
:102280003B2900002000A901A90A01309E31F52652
:10229000913120002F08AA002E08A9009C315E244D
:1022A00091312000A901A90A02309E31F526913111
:1022B00020003108AA003008A9009C315E24913129
:1022C0002000A901A90A03309E31F5269131200092
:1022D0003308AA003208A9009C315E249131200005
:1022E000A901A90A04309E31F52691312000350854
:1022F000AA003408A9009C315E2491310800200016
:1023000028080319842985298A292808031D892971
:102310008A298F292608993185219131D0292808C9
:10232000033E8600870116000104031998299929A4
:10233000B6292808033E86008701403FA900413F97
:10234000AA00280A86008701403FAB00413FAC004D
:102350002C08803AAD002A08803A2D02031DB229CC
:1023600029082B020318B529B629D02920002608F0
:10237000A900280886008701280A84008501000832
:102380000107AA002A088600023087002908810078
:10239000280A860087010130810741310318810A2C
:1023A0000800993166219131003A0319D829D929B9
:1023B0000A2AE62999313E219131272A9931432170
:1023C0009131272A99314D219131272A230057082D
:1023D000FA007A08F9000630C83E8600013087000E
:1023E000413F8A00403F0A009131FB00FC017C081C
:1023F000003A0319FC29E2297B08013A0319E22972
:10240000033A0319DA29013A0319DE29073A0319B5
:10241000E229E229230064101730C83E860001300B
:102420008700403F84008501810A000899313421EA
:10243000913101302300E0020030E13B600861048B
:10244000031D232A242A262A0630272A03300800BF
:10245000210038088600390887000108C000C10142
:102460004008B0004108B1003A0886003B088700E8
:102470000108C200C3014208B2004308B300923110
:10248000DB22923121003A0886003B0887000108D0
:10249000C000C1014008B0004108B1003C088600FE
:1024A0003D0887000108C200C3014208B20043088A
:1024B000B30038088600390887000108C400C50148
:1024C0004408B4004508B5003E0886003F08870070
:1024D0000108C600C7014608B6004708B70090319A
:1024E000E420923129302100C1009630C0007F30B5
:1024F000890B782AC00B782AC10B782A08002000A3
:10250000BE002100631C852A862A8F2A20003E08EF
:10251000B9003908AE0036089D31BF259231200040
:10252000B81B932A942A992A3808BD003708BC00A2
:102530009B2ABC01BD01BA01BB01AF2A203020009B
:10254000A6000030A7003E08B9003908A800913164
:102550007F21923101302000BA070030BB3D3B089B
:10256000803AB9003D08803A3902031DB92A3C0877
:102570003A02031CBC2ABD2A9E2A21006318C12AE4
:10258000C22ACB2A20003E08B9003908AE0036081E
:102590009D31BF25923120003608A3000230A400EF
:1025A0009B319923923120003C082307B6003D0857
:1025B000243DB70008002100B7013B2B20000F1974
:1025C000E22AE32AF82AD6302100AD00A030AE007E
:1025D0009B310B2392312100B701B70A30088600E6
:1025E00031088700810132088600330887008101A5
:1025F00020006A080319FD2AFE2A3B2B9F3124275D
:1026000092312100B4003408B6002B2B0100663053
:102610002100AD00A130AE009B310B23923121008F
:1026200030088600310887008101320886003308AF
:102630008700810102302100B5000430B400BA30B7
:10264000890B202BB40B202BB50B202B0000210075
:10265000B701B70A3B2B3608B400B5013508003A7C
:102660000319332B3B2B3408303A0319062B043A59
:102670000319072B3B2B210037080319402B412B53
:10268000DE2A0800A030860001308700C1308400B7
:102690000030850014302100B60016001A00B60B79
:1026A0004D2BBE30860001308700B73084000030EB
:1026B00085000A30B60016001A00B60B5B2B0130FD
:1026C0009A312522933101309A31322293310030F0
:1026D0009A311822933100309A310B229331210024
:1026E00031082000AF00210030082000AE00B030DB
:1026F000B000A130B1001530B200A130B3003A30C3
:10270000B400A030B50091312E219331C1302000AA
:10271000B3000030B400210031082000B6002100D1
:1027200030082000B5009B3121239331200034086C
:102730002100D600200033082100D50056082000D3
:10274000B400210055082000B300B730B5000030B8
:10275000B6009B3121239331200034082100AE00C4
:10276000200033082100AD009B310B2393319031C1
:102770009C20933120000F1DBE2BBF2BBA2B2100B4
:102780003208860033088700810134088600350846
:102790008700810108002000AB002B08A900290850
:1027A0002100E90000309A31F62293319C3020005C
:1027B000A900D730890BDA2BA90BDA2B03309B3118
:1027C000682393311A302000A900F830890BE62BDA
:1027D000A90BE62B000003309B31682393311A309C
:1027E0002000A900F830890BF32BA90BF32B000074
:1027F00003309B31682393311A302000A900F83050
:10280000890B002CA90B002C000002309B3168239F
:1028100093311A302000A900F830890B0D2CA90B38
:102820000D2C000028309B316823933102302000AA
:10283000AA000430A900BA30890B1C2CA90B1C2C4F
:10284000AA0B1C2C00000C309B3168239331023002
:102850002000AA000430A900BA30890B2D2CA90B46
:102860002D2CAA0B2D2C000001309B3168239331B5
:1028700002302000AA000430A900BA30890B3E2C97
:10288000A90B3E2CAA0B3E2C000006309B3168237E
:10289000933102302000AA000430A900BA30890B1D
:1028A0004F2CA90B4F2CAA0B4F2C00000800200026
:1028B000A800A901AA01280803195F2C602CC32CC9
:1028C000BD2C6A080319652C662CBD2C9F3124276A
:1028D00094312000A5002508A700A72C0100023094
:1028E0002000A6000430A500BA30890B752CA50B7A
:1028F000752CA60B752C00002000A901A90AAA01BD
:10290000AA0ABD2C02302000A6000430A500BA306F
:10291000890B882CA50B882CA60B882C0000200086
:10292000A9017F2C02302000A6000430A500BA3097
:10293000890B982CA50B982CA60B982C0000200036
:10294000A901A90AAA01AA0A22008C13BD2C2708F2
:10295000A500A6012608003A0319AF2CBD2C2508B6
:10296000303A03196E2C023A03196F2C013A0319FD
:10297000822C0A3A0319922CBD2C20002A08031934
:10298000C22CC32C612C2808031DC72CC82CEA2C90
:10299000E42C01309B31CE239431003A0319D12C21
:1029A000D22CD62C2000A901AA01AA0A01309B3101
:1029B000E9239431003A0319DE2CDF2CE42C2000AB
:1029C000A901A90AAA01AA0A20002A080319E92CC8
:1029D000EA2CC92C290808002000B5012B308600FC
:1029E00000308700473FB300B31FF72CF82C1A2D97
:1029F0002000AB09AC09AD09AE09AF09B009B109B6
:102A0000B209AB0A031D172DAC0A031D172DAD0A21
:102A1000031D172DAE0A031D172DAF0A031D172D19
:102A2000B00A031D172DB10A031D172DB20A20008D
:102A3000B501B50A2330860000308700473F2000EB
:102A4000B300B31F242D252D442D2000A309A40974
:102A5000A509A609A709A809A909AA09A30A031D86
:102A6000442DA40A031D442DA50A031D442DA60AC6
:102A7000031D442DA70A031D442DA80A031D442D40
:102A8000A90A031D442DAA0A2000230824042504B2
:102A900026042704280429042A040319502D512D43
:102AA000A42DB401B40A602DA335A40DA50DA60D67
:102AB000A70DA80DA90DAA0D0130B3003308B40766
:102AC000AA1F632D642D542D2A083202031D822D66
:102AD00029083102031D822D28083002031D822D92
:102AE00027082F02031D822D26082E02031D822D8A
:102AF00025082D02031D822D24082C02031D822D82
:102B000023082B02031C852D862D962D2308AB024E
:102B10002408AC3B2508AD3B2608AE3B2708AF3B5D
:102B20002808B03B2908B13B2A08B23BAA36A90CB9
:102B3000A80CA70CA60CA50CA40CA30C0130B40285
:102B4000031DA32DA42D642D35080319A82DA92D2F
:102B5000C72DAB09AC09AD09AE09AF09B009B10980
:102B6000B209AB0A031DC72DAC0A031DC72DAD0A60
:102B7000031DC72DAE0A031DC72DAF0A031DC72DA8
:102B8000B00A031DC72DB10A031DC72DB20A2000CC
:102B90002B08A3002C08A4002D08A5002E08A600D1
:102BA0002F08A7003008A8003108A9003208AA00A1
:102BB00008002000B5012330860000308700473F21
:102BC000B300B31FE42DE52D072E2000A309A409AF
:102BD000A509A609A709A809A909AA09A30A031D05
:102BE000042EA40A031D042EA50A031D042EA60A02
:102BF000031D042EA70A031D042EA80A031D042E7C
:102C0000A90A031D042EAA0A2000B501B50A2B301B
:102C1000860000308700473F2000B300B31F112E0D
:102C2000122E362E2000AB09AC09AD09AE09AF0952
:102C3000B009B109B209AB0A031D312EAC0A031D5C
:102C4000312EAD0A031D312EAE0A031D312EAF0AFF
:102C5000031D312EB00A031D312EB10A031D312E82
:102C6000B20A01302000B3003308B50636308600C2
:102C70000030870008302000B30000301E00B30B86
:102C80003E2E2308240425042604270428042904AE
:102C90002A0403194C2E4D2EA92EB401B40A5C2E21
:102CA000A335A40DA50DA60DA70DA80DA90DAA0D60
:102CB0000130B3003308B407AA1F5F2E602E502ED8
:102CC000B635B70DB80DB90DBA0DBB0DBC0DBD0DA8
:102CD0002A083202031D862E29083102031D862E82
:102CE00028083002031D862E27082F02031D862E7A
:102CF00026082E02031D862E25082D02031D862E72
:102D000024082C02031D862E23082B02031C892E67
:102D10008A2E9B2E2308AB022408AC3B2508AD3B32
:102D20002608AE3B2708AF3B2808B03B2908B13B3B
:102D30002A08B23B3614AA36A90CA80CA70CA60C7C
:102D4000A50CA40CA30C0130B402031DA82EA92EBF
:102D5000602E35080319AD2EAE2ECC2EB609B7095C
:102D6000B809B909BA09BB09BC09BD09B60A031DEE
:102D7000CC2EB70A031DCC2EB80A031DCC2EB90ADF
:102D8000031DCC2EBA0A031DCC2EBB0A031DCC2E6C
:102D9000BC0A031DCC2EBD0A20003608A30037084C
:102DA000A4003808A5003908A6003A08A7003B0887
:102DB000A8003C08A9003D08AA0008002100A900BD
:102DC00020005D0886008701403FDF00413FE000B2
:102DD0005F088400600885001200253A031DF12E6B
:102DE000F22EDA2F5D08860087010130810741311C
:102DF0000318810A2200D501D6012100E301E40174
:102E0000FF30E100FF30E20020005D08860087010E
:102E1000403FDF00413FE0005F088400600885001C
:102E20001200643A0319152F162F272F5D0886000C
:102E30008701403FDF00413FE0005F0884006008F9
:102E400085001200693A031D262F272F752F5D0874
:102E5000860087010130810741310318810A5E082D
:102E60008600870101088400850102308107003F48
:102E7000DF00013FE0005F082100A00020006008A3
:102E80002100A100890D893B8909A200A300A400AB
:102E9000A500A600A70020082000BF0021002108EF
:102EA0002000C000210022082000C10021002308CA
:102EB0002000C200210024082000C30021002508B2
:102EC0002000C400210026082000C500210027089A
:102ED0002000C600210029088931582196312000A0
:102EE0004008DE003F08DD00FF2F5D0886008701F7
:102EF000403FDF00413FE0005F088400600885003C
:102F000012006E3A031D852F862FA52F5D088600BF
:102F100087010130810741310318810A5E0886006C
:102F20008701403F84008501810A0008DF005F08B7
:102F30002100A8002808860087015F08C03F6008BC
:102F4000C13F2000DD01DE01FF2F5D088600870103
:102F5000403FDF00413FE0005F08840060088500DB
:102F60001200253A031DB52FB62FD12F5D0886001C
:102F700087010130810741310318810A2530A600FD
:102F80000030A700210029082000DF005F08A8000A
:102F900091317F21963101302000DD000030DE00CC
:102FA000FF2F5D088600870101308107413103183A
:102FB000810AA12F5D0886008701403FDF00413F65
:102FC000E0005F088400600885000008E100E2017D
:102FD0006108A6006208A700210029082000E3007C
:102FE0006308A80091317F21963120005D0886009A
:102FF00087010130810741310318810ACB2F080076
:10300000393419349C3419348C341934D134113492
:103010000E3410347E341934C6341E343E34193420
:1030200043341934483419344D3419345234193472
:10303000573419345C341934613419343E341E3435
:103040002D343E34203454344534533454342034F5
:1030500043344F344E3446344F3452344D34453477
:1030600020342D34203441345434543445344E34D7
:103070005434453420344134433451345534493484
:103080005434543445344D3445344E3454340D3472
:043090000A340034CA
:10320E00080001300800240096140800240016154A
:10321E00080024009615080024001108080020005C
:10322E00911508002000911108009B31B3239931AC
:10323E00080023001D121D160800240096161616EF
:10324E00080024009612161608009E319826993111
:10325E0008001630210097000800F00070082400C6
:10326E00910008002300E410E3010E3008009931AC
:10327E000A2199310130080099310A219931023021
:10328E00080099310A2199310130080099310D2138
:10329E009931003008009931282199310530080004
:1032AE009931242199310A3008009931242199311C
:1032BE00093008002300E410E3010E30080024005A
:1032CE00160E890C890C013908009931E6219931C5
:1032DE002400161408009931E621993124001615A0
:1032EE000800640080010131890B79290034230024
:1032FE006410993110219931043008002000A50086
:10330E0025089E316B2699310800230064145E3522
:10331E0099313421993103300800F03021009E009C
:10332E009B019C0101309D000800230064140314CE
:10333E005E0D9931342199310530080020002408A2
:10334E002200D800200023082200D7000800200009
:10335E0024082200DC00200023082200DB000800E5
:10336E00200024082200DA00200023082200D900C1
:10337E000800200024082200DE002000230822007E
:10338E00DD000800200024082100E60020002308AC
:10339E002100E500080001309B316823993135305A
:1033AE00890BD729000008002830240095009601CB
:1033BE0094012730920021008E150E16080024006D
:1033CE001419EA29EB29E62916081F39031DF029DD
:1033DE00F129E62908007030210099009801220099
:1033EE00960121001A1FFC29FD29F82908007608EC
:1033FE00F1007508F0007708F8007808F200003048
:10340E009D31E825993108002000A30023080319F7
:10341E00112A122A152A22000C14172A22000C1027
:10342E0008002000A300230803191E2A1F2A222A9F
:10343E0022001014242A2200101008002000A300DD
:10344E00230803192B2A2C2A2F2A22009014312A02
:10345E002200901008002000A30023080319382A28
:10346E00392A3C2A220010153E2A2200101108008B
:10347E002000A30023080319452A462A492A2200C0
:10348E008C144B2A22008C1008002000A300230865
:10349E000319522A532A562A22000C15582A2200A2
:1034AE000C1108002000A300230803195F2A602ACC
:1034BE00632A22000C16652A22000C120800200036
:1034CE00A300230803196C2A6D2A702A22008C1679
:1034DE00722A22008C1208003230240092003630FC
:1034EE00950096018030940021008E150E168B17D4
:1034FE000B1791150800F3002300E41D872A882A74
:10350E00912A7308F2007208DF007108E10070085A
:10351E00E000E41108002000A3009931E6219A3161
:10352E0020002308240091002000911D9F2AA02A2C
:10353E009B2A911108009C3120249A319931F22155
:10354E009A31993130219A31993194219A319031B1
:10355E0054209A3108000230F0000030F100790852
:10356E009A3182229A310030F500F600F701993136
:10357E00FE219A31043008000130F0000030F100D5
:10358E0079089A3182229A310030F500F600F7015F
:10359E009931FE219A31023008000230F0000030DD
:1035AE00F10079089A3182229A310030F500F60046
:1035BE00F7019931FE219A31023008000130F000F6
:1035CE000030F10079089A3182229A310030F500EC
:1035DE00F600F7019931FE219A31043008002000DF
:1035EE00A40099316C219A31210069089A319222F6
:1035FE009A312000240821006E049A3192229A31C9
:10360E00993172219A310800AF302000E900690823
:10361E002100AF002E082000E50021002D0820001B
:10362E00E400AF30E9006908E60000309F3153270F
:10363E009B31080020003408A4003308A3009B31FE
:10364E0099239B31200023083307A7002408343D1B
:10365E00A8003608AA003508A9009D3170259B31B7
:10366E000800790886008701403FF000413FF100D5
:10367E007908023E8600870101089A3182229B3129
:10368E000030F500F600F7019931FE219B31023032
:10369E0008002000A60021006A082000A5002508C9
:1036AE00A604260804389A31F6229B3120002608FB
:1036BE00FB399A31F6229B314230890B642B003252
:1036CE0008002000A8002100EA0120002808F03997
:1036DE009B3150239B3120002808A7000330A735CB
:1036EE00FF3E031D762B2735F0399B3150239B313E
:1036FE0008002000A8002100EA01EA0A200028089C
:10370E00F0399B3150239B3120002808A70003304D
:10371E00A735FF3E031D8F2B2735F0399B315023E4
:10372E009B31080020002408A6002308A500A32B27
:10373E000130A3070030A43D23088600240887002B
:10374E000108031DAB2BAC2B9F2B25082302A300D6
:10375E002608243BA400080023001908F0002000CE
:10376E006C08E53E8600013087007008810001304C
:10377E00F0007008EC0708306C02031CC72BC82B36
:10378E00C92BEC010130F0007008EA070800200098
:10379E00A400A30124080319D52BD62BDC2B8F1BD9
:1037AE00D92BDA2BDC2BA301A30A2408031DE02B53
:1037BE00E12BE72B8F1FE42BE52BE72BA301A30AAD
:1037CE00230808002000A400A30124080319F02BED
:1037DE00F12BF72B0F19F42BF52BF72BA301A30AC3
:1037EE002408031DFB2BFC2B022C0F1DFF2B002C82
:1037FE00022CA301A30A2308080020003708803AF0
:10380E00B80080303802031D0E2C0130360203182A
:10381E00112C122C1F2C20003609B8003709B900C4
:10382E00B80A0319B90A3808B6003908B7001F2CB0
:10383E000800220090018F018C018D018E0108304D
:10384E00210090008C01CF308D00BF308E00FF30F4
:10385E008F0023008F013F308D0090013C308C0093
:10386E00240090018D012100951722009D01080072
:10387E0022000C1706302000A4001330A300AD3038
:10388E00890B472CA30B472CA40B472C003222008C
:10389E000C1306302000A4001330A300AD30890BAA
:1038AE00562CA30B562CA40B562C003208002000CD
:1038BE00AC01AD01712C29082C0784002A082D3D7E
:1038CE00850000089B3180239C3101302000AC071D
:1038DE000030AD3D29082C0784002A082D3D8500B7
:1038EE001200031D7B2C7C2C622C08002000A600ED
:1038FE002608A500A50DA50D21001D0820002506F2
:10390E008339250621009D001D140D30890B8D2C49
:10391E00000021009D149D18952C962C922C1C08AD
:10392E002000A40021001B082000A3000800203066
:10393E002100AD009830AE009B310B239C3121004D
:10394E00B101B2019D314A259C3101302100B107F0
:10395E000030B23D3208803AB00080303002031D94
:10396E00BA2C02303102031CBD2CBE2CA92C08002F
:10397E00083021006C020318C52CC62CDF2C6D08F4
:10398E004D3E860001308700010823009A00013069
:10399E00F00070082100ED0708306D02031CD82CD2
:1039AE00D92CDA2CED010130F0007008EC07E02C78
:1039BE00111208002000A400A30124080319E82C0A
:1039CE00E92CF32C0F1CEC2CED2CF32C8F18F02C77
:1039DE00F12CF32CA301A30A2408031DF72CF82CB9
:1039EE00022D0F18FB2CFC2C022D8F1CFF2C002DF2
:1039FE00022DA301A30A230808002000A400A3019E
:103A0E00240803190B2D0C2D162D8F1D0F2D102D87
:103A1E00162D0F1A132D142D162DA301A30A2408EB
:103A2E00031D1A2D1B2D252D8F191E2D1F2D252DF6
:103A3E000F1E222D232D252DA301A30A23080800D6
:103A4E002000A400A301240803192E2D2F2D392D9B
:103A5E008F1E322D332D392D0F1B362D372D392D2F
:103A6E00A301A30A2408031D3D2D3E2D482D8F1AB8
:103A7E00412D422D482D0F1F452D462D482DA301BA
:103A8E00A30A230808002000A801A9019E311226CE
:103A9E009D310B302000A7002630A6005D30890B2B
:103AAE00562DA60B562DA70B562D00320130200099
:103ABE00A8070030A93D2908803AA60080302602CA
:103ACE00031D6B2D02302802031C6E2D6F2D4D2D04
:103ADE00080020002A08B0002908AF002808B2000C
:103AEE002708B1003208AC003108AB00B10A031947
:103AFE00B20A2B0886002C0887003008AE002F086B
:103B0E00AD00AF0A0319B00A2D0884002E088500F7
:103B1E000008C03F8908031D952D962D792D0800AC
:103B2E002D343E34203445345234523445345534D9
:103B3E0052343A342034003400340034003400342B
:103B4E0000340034003400340D340A3400340034B0
:103B5E000034003400340034003400340D340A34A0
:103B6E0000340034003400340034003400340034A7
:103B7E002000B500B301B401D72D3208AF00B0015B
:103B8E002F08A6003008A7002E08B1003108A800A3
:103B9E0091317F219D3101302000B3070030B43DBB
:103BAE0033083507AF002F08860002308700010862
:103BBE00B0003008B2003208031DE62DE72DC42DEB
:103BCE000800F400700871040319EE2DEF2D022E7B
:103BDE007435C83E8600013087007008C03F7108FA
:103BEE00C13F7208F3007408D43E8600013087008E
:103BFE0073088100112E7435C83E8600013087008F
:103C0E000830C03F1930C13F7408D43E86000130E1
:103C1E008700810108002000A401A50122000D16D5
:103C2E0006302000A3003030890B1B2EA30B1B2E59
:103C3E00000022000D1206302000A3003030890B48
:103C4E00262EA30B262E000001302000A4070030E4
:103C5E00A53D2508803AA30080302302031D392E8E
:103C6E0032302402031C3C2E3D2E152E080023005C
:103C7E0064100230FA007A08E3004D2E9931482183
:103C8E009E316A2E99314D219E316A2E5608FA00C8
:103C9E007A08F9000430C83E860001308700413FA3
:103CAE008A00403F0A009E31FB00FC017C08003A6E
:103CBE000319622E492E7B08023A0319452E013A4A
:103CCE000319452E492E08002000A40021006C087F
:103CDE000319722E732E6D2E111A762E772E7C2EC0
:103CEE002000240823009A00952E1112200024088B
:103CFE00A3007D084D3E8600013087002308810019
:103D0E000130A3002308FD0708307D02031C902E0E
:103D1E00912E922EFD0101302100EC022100111690
:103D2E000800993119219E312300641C9F2EA02E6C
:103D3E00AE2E993166219E31003A0319A72EA82E78
:103D4E00AE2E0F302000A00020082300E20023003A
:103D5E0062082000A000A101A035A10D00302007AF
:103D6E0084009830213D8500013F8A00003F0A0003
:103D7E009E312000A20022082300E200080023004A
:103D8E00E415D62E993148219E31F42E9931162103
:103D9E009E310330F42E99314D219E31F42E54086C
:103DAE00FA007A08F90049088A0048080A009E318C
:103DBE00FB00FC017C08003A0319E62ED22E7B088C
:103DCE00013A0319D22E033A0319C92E013A0319E7
:103DDE00C92E073A0319CD2ED22E08002000AC00B2
:103DEE00102F2908BF3E9B3168239E31232F2908AF
:103DFE00933E9B3168239E31232F2908D33E9B315E
:103E0E0068239E31232F29087F3E9B3168239E31E4
:103E1E00232F2C08AA00AB012B08003A0319182FE8
:103E2E000A2F2A08023A0319F82E013A0319FE2E18
:103E3E00073A0319042F0A2F080020006A080319F5
:103E4E00292F2A2F242F6B08453E8600013087002C
:103E5E000108A30023082100EB0020006B08E53EBB
:103E6E008600013087000108A3002308A40001305A
:103E7E00A3002308EB0708306B02031C472F482FC3
:103E8E00492FEB012100911201302000EA0221009E
:103E9E0091162000240808002100AA0020006508C1
:103EAE002100AC00200064082100AB00DF01E0011E
:103EBE00762FAB302000E7006708DD006608E800CB
:103ECE006808DE0021002A089631DE269F31200088
:103EDE005D082100DF0720005E082100E03D2B0871
:103EEE0084002C0885001200031D7E2F7F2F602F6B
:103EFE0060082000E50021005F082000E4000800B3
:103F0E002100B400AF302000E90069082100B300A1
:103F1E0034082000E90069082100B500B601B70198
:103F2E00B801B9012E082000E50021002D0820005F
:103F3E00E400B330E9006908E600B5309F3153273D
:103F4E009F31200065082100B20020006408210086
:103F5E00B100360834072000E900690886000230F7
:103F6E008700810121003208AE003108AD00080043
:103F7E0020006C08453E8600013087008101230039
:103F8E001D1DCA2FCB2FD82F20006C08453E860052
:103F9E0001308700811422005C088A005B080A0049
:103FAE009F3123009D1CDC2FDD2FEA2F20006C0893
:103FBE00453E860001308700011522005A088A000E
:103FCE0059080A009F3120006C08453E86000130DA
:103FDE00870001080319F42FF52FFC2F2200580833
:103FEE008A0057080A009F31FF2F9B31B3239F3160
:103FFE00080041347434743465346E34743465346A
:10400E002034763461346C346934643461347434FD
:10401E0069346F346E3420346C3465346434203437
:10402E0072346F347534673465340D340A340034A9
:10403E002D343E342034503452344F3447345234BD
:10404E0041344D344D344134543449344F344E346C
:10405E0020345434453452344D3449344E3445347E
:10406E0045340D340A3400342D343E34203450346B
:10407E0052344F344734523441344D344D3441343C
:10408E00543449344F344E34203445344E34203475
:10409E0043344F345534523453340D340A340034CF
:1040AE002D343E3420344534523452344534553454
:1040BE0052342034503452344F3447345234413415
:1040CE004D344D344134543449344F344E340D3420
:1040DE000A3400342D343E342034543445345334B1
:1040EE00543420344D3441344E34553445344C34EC
:1040FE00203445344E34203443344F345534523406
:10410E0053340D340A340034413454345434453469
:10411E004E34543445342034563441344C344934BE
:10412E0044344134543449344F344E3420344C34B6
:10413E004534443453340D340A3400342D343E3473
:10414E0020344534463446344134433445344D34BA
:10415E0045344E345434203445344E3420344334B4
:10416E004F345534523453340D340A3400342D3414
:10417E003E34203445344634463441344334453499
:10418E004D3445344E345434203454344534523442
:10419E004D3449344E3445340D340A3400342D3404
:1041AE003E342034463449344E342034543445346D
:1041BE005334543420344D3441344E345534453414
:1041CE004C340D340A3400344534523452344534B0
:1041DE00553452342034503452344F3447345234E0
:1041EE0041344D344D344134543449344F344E34CB
:1041FE0000345034523445345334533445345234ED
:10420E0020344F344B3420344F345534203445341D
:10421E0052345234453455345234003441345434CB
:10422E00543445344E3454344534203441344334BC
:10423E005134553449345434543445344D34453462
:10424E004E34543400342D343E34203441347034E2
:10425E007034753479346534723420347334753473
:10426E00723420344F344B340D340A340034543409
:10427E0045345334543420345234313420344F3492
:10428E004634463420342D342034523432342034E3
:10429E004F344E3400345434453453345434203473
:1042AE005234323420344F344634463420342D3494
:1042BE0020345234333420344F344E3400342D34C1
:1042CE003E34203454344534533454342034413441
:1042DE0043345134553449345434543445340D3404
:1042EE000A34003454344534533454342034433473
:1042FE004134523454344534203444343934323415
:10430E003534453444343434003456344534523420
:10431E0049344634493445345234203450343134DF
:10432E002034453454342034503432340034523432
:10433E004534533455344C3454344134543420348D
:10434E0043344F344E344634493452344D3445346C
:10435E000034543445345334543420344E344F34B2
:10436E004E34203443344F344E3446344F3452346A
:10437E004D3445340034463449344E3420345034B0
:10438E0052344F344734523441344D344D34413429
:10439E00543449344F344E34003450344F34533443
:1043AE004934543449344F344E344E3445345234F7
:1043BE00203443344134523454344534003454346C
:1043CE004534533454342034333420345234453449
:1043DE004C3441344934533420344F34463446340B
:1043EE00003443344C344134563449344534523419
:1043FE002034453443344C344134493452344534FA
:10440E003F340034503452344534533453344534ED
:10441E00523420344F344B3420342F3420344E3425
:10442E004F344B34003454344534533454342034E4
:10443E0033342034523445344C34413449345334BB
:10444E0020344F344E3400345434453453345434C1
:10445E0020344C3445344434203443344C344134C9
:10446E005634493445345234003443344C34413498
:10447E00563449344534523420344534543445345A
:10448E0049344E3454343F34003454344534533468
:10449E00543420344C34453444345334203443346F
:1044AE004134523454344534003445345234523449
:1044BE004534553452342034563441344C34493416
:1044CE004434453445340034463449344E34203473
:1044DE004534463446344134433445344D34453402
:1044EE004E3454340034543445345334543420341C
:1044FE004C3445344434203452344F3455344734DC
:10450E0045340034543445345334543420344C340C
:10451E0045344434203456344534523454344534BE
:10452E000034543445345334543420344C344534EC
:10453E004434203442344C344534553445340034FC
:10454E004D344F34443455344C3445342034453492
:10455E00533443344C34413456344534003454349B
:10456E00453453345434203442344C345534453469
:10457E0054344F344F34543448340034413450346E
:10458E005034553459344534523420345334553420
:10459E00523420344F344B3400344D346134733440
:1045AE00743465347234203465346E34203474348B
:1045BE0065347334743400342D343E342034543422
:1045CE0045345334543420344F34463446340D3449
:1045DE000A3400344D344F34443455344C3445345D
:1045EE0020344D344134493454345234453400343B
:1045FE0052344534543449345234453452342034D0
:10460E004334413452345434453400344C344534FC
:10461E0044345334203441344C344C3455344D34BA
:10462E0045344534533400342D343E342034543420
:10463E0045345334543420344F344E340D340A340C
:10464E0000342D343E3420345434453453345434F1
:10465E003A34313430343A34313400342D343E343B
:10466E00203454344534533454343A34313432349F
:10467E003A34313400342D343E34203454344534FD
:10468E00533454343A34313433343A3431340034CC
:10469E002D343E34203454344534533454343A3467
:1046AE00313434343A34313400342D343E34203401
:1046BE0054344534533454343A34313435343A3432
:1046CE00313400342D343E34203454344534533494
:1046DE0054343A34313436343A34313400342D349F
:1046EE003E34203454344534533454343A34313413
:1046FE0037343A34313400342D343E34203454348B
:10470E004534533454343A34313438343A34313401
:10471E0000345434453453345434203448344F34F4
:10472E0052344C344F344734453400342D343E34F7
:10473E00203454344534533454343A3431343A34C6
:10474E00313400342D343E34203454344534533413
:10475E0054343A3432343A34313400342D343E3415
:10476E00203454344534533454343A3433343A3494
:10477E00313400342D343E342034543445345334E3
:10478E0054343A3434343A34313400342D343E34E3
:10479E00203454344534533454343A3435343A3462
:1047AE00313400342D343E342034543445345334B3
:1047BE0054343A3436343A34313400342D343E34B1
:1047CE00203454344534533454343A3437343A3430
:1047DE00313400342D343E34203454344534533483
:1047EE0054343A3438343A34313400342D343E347F
:1047FE00203454344534533454343A3439343A34FE
:10480E003134003454344534533454342034533416
:10481E0046344C34413453344834003446344934ED
:10482E004E342034443445342034543445345334D7
:10483E005434003456344F344934523420344134D5
:10484E00503450344C344934003454344534533499
:10485E00543420345234313420344F344E340034F6
:10486E0045345434413450344534203431343034AA
:10487E0000344534543441345034453420343134CA
:10488E0032340034543445345334543420344234A6
:10489E005034323400344534543441345034453479
:1048AE0020343134333400344534543441345034AC
:1048BE0045342034313434340034453454344134A6
:1048CE005034453420343134353400344534543486
:1048DE004134503445342034313436340034453488
:1048EE005434413450344534203431343734003468
:1048FE004534543441345034453420343134383412
:10490E000034543445345334543420344F344B34FF
:10491E000034453454344134503445342034313429
:10492E0000345434453453345434203450343134F8
:10493E000034453454344134503445342034323408
:10494E0000345434453453345434203450343234D7
:10495E0000344534543441345034453420343334E7
:10496E0000344534543441345034453420343434D6
:10497E0000344534543441345034453420343534C5
:10498E0000344534543441345034453420343634B4
:10499E0000344534543441345034453420343734A3
:1049AE000034453454344134503445342034383492
:1049BE000034453454344134503445342034393481
:0849CE00003425346434003488
:020000040001F9
:08000000FF3FFF3FFF3FFF3F00
:04000E00E43FFF3F8D
:00000001FF
